:020000040800F2
:100000000050002069170008B9170008B917000848
:10001000B9170008B9170008B91700080000000058
:10002000000000000000000000000000B9170008F8
:10003000B917000800000000B917000841110008B6
:10004000B9170008B9170008B9170008B917000850
:10005000B9170008B9170008B9170008B917000840
:10006000B9170008B9170008B9170008B917000830
:10007000B9170008B9170008B9170008B917000820
:10008000B9170008B9170008B9170008B917000810
:10009000B9170008B9170008B9170008B917000800
:1000A000B9170008B9170008B9170008B9170008F0
:1000B000B9170008B9170008B9170008B9170008E0
:1000C000B9170008B9170008B917000891100008FF
:1000D000B917000885120008C5120008B9170008F2
:1000E000B9170008B917000800000000B917000888
:1000F000B9170008B9170008B9170008B9170008A0
:10010000B9170008B9170008B9170008B91700088F
:10011000B9170008B9170008B9170008B91700087F
:10012000B9170008B9170008B9170008B91700086F
:1001300010B5054C237833B9044B13B10448AFF321
:1001400000800123237010BD5C000020000000002F
:100150000418000808B5034B1BB103490348AFF36B
:10016000008008BD000000006000002004180008A6
:1001700080B485B000AF0346FB800023FB600DE038
:100180000023BB6003E000BFBB680133BB60BB68FA
:10019000B3F5167FF7DDFB680133FB60FB88FA6877
:1001A0009A42EDDD00BF00BF1437BD4680BC7047EA
:1001B00080B582B000AF0346FB710021102000F033
:1001C0004DFDFB79DB09DBB219461B2000F046FD33
:1001D000FB799B09DBB203F00103DBB219461A205D
:1001E00000F03CFDFB795B09DBB203F00103DBB2FD
:1001F0001946192000F032FDFB791B09DBB203F030
:100200000103DBB21946182000F028FD0121082067
:1002100000F024FD0120FFF7ABFF0021082000F0D3
:100220001DFD0120FFF7A4FFFB79DB08DBB203F023
:100230000103DBB219461B2000F010FDFB799B087F
:10024000DBB203F00103DBB219461A2000F006FD11
:10025000FB795B08DBB203F00103DBB2194619201E
:1002600000F0FCFCFB7903F00103DBB21946182017
:1002700000F0F4FC0121082000F0F0FC0120FFF761
:1002800077FF0021082000F0E9FC0120FFF770FF54
:1002900000BF0837BD4680BD80B582B000AF0346C1
:1002A000FB710121102000F0D9FCFB79DB09DBB2E6
:1002B00019461B2000F0D2FCFB799B09DBB203F04E
:1002C0000103DBB219461A2000F0C8FCFB795B0978
:1002D000DBB203F00103DBB21946192000F0BEFCCB
:1002E000FB791B09DBB203F00103DBB219461820CE
:1002F00000F0B4FC0121082000F0B0FC0120FFF761
:1003000037FF0021082000F0A9FC0120FFF730FF93
:10031000FB79DB08DBB203F00103DBB219461B20DB
:1003200000F09CFCFB799B08DBB203F00103DBB21D
:1003300019461A2000F092FCFB795B08DBB203F04F
:100340000103DBB21946192000F088FCFB7903F0A9
:100350000103DBB21946182000F080FC01210820BF
:1003600000F07CFC0120FFF703FF0021082000F0D3
:1003700075FC0120FFF7FCFE00BF0837BD4680BDBD
:1003800080B500AF3220FFF7F3FE0220FFF710FF29
:100390002820FFF70DFF0C20FFF70AFF0120FFF7D1
:1003A00007FF0120FFF7E4FE0620FFF701FF00BF73
:1003B00080BD80B500AF0121182000F079FB01213C
:1003C000192000F075FB01211A2000F071FB0121BA
:1003D0001B2000F06DFB0121082000F069FB0121CA
:1003E000102000F065FB00BF80BD80B582B000AF7B
:1003F0000346FB71FB791846FFF74EFF00BF083735
:10040000BD4680BD80B584B000AF78600023FB732B
:1004100009E0FB7B7A6813441B781846FFF7E5FF79
:10042000FB7B0133FB73FB7B7A6813441B78002B47
:10043000EFD100BF00BF1037BD4680BD80B582B090
:1004400000AF03460A46FB711346BB71FB79002BD4
:1004500007D1BB7963F07F03DBB21846FFF7A8FE34
:1004600008E0FB79012B05D1BB79403BDBB2184694
:10047000FFF79EFE00BF0837BD4680BD80B500AFC8
:100480000120FFF795FE0120FFF772FE00BF80BD3F
:1004900080B586B000AF78600023FB757B68002BC9
:1004A00003D13020FFF7A1FF3DE07B68002B25DA68
:1004B0007B685B427B602D20FFF797FF1EE07A6828
:1004C0001A4B83FB02139910D317C91A0B469B00D2
:1004D0000B445B00D11ACAB2FB7D3032D2B2183362
:1004E0003B4403F80C2CFB7D0133FB757B680F4A02
:1004F00082FB03129210DB17D31A7B607B68002B00
:10050000DDD1FB7DBB750BE0BB7D013B18333B446C
:1005100013F80C3C1846FFF768FFBB7D013BBB7529
:10052000BB7D002BF0D11837BD4680BD676666667F
:1005300080B500AF0221022000F0B4FC1921012097
:1005400000F0B0FC04210B2000F0B2FA0A210C20CC
:1005500000F0AEFA264B1B68254A23F00203136015
:1005600000BF234B5B6803F00203002BF9D1204B43
:100570001B681F4A43F00103136000BF1C4B5B68FC
:1005800003F00103012BF9D1194B1B68184A23F022
:1005900004031360164B1B68154A23F0080313600D
:1005A000134B1B68124A23F010031360104B1B6897
:1005B0000F4A43F0200313600D4B1B680C4A43F0B5
:1005C000400313600A4B1B68094A23F08003136041
:1005D0000223013B1B051A460F23013B1B04134357
:1005E0000422013A1146024A0B43D36100BF80BD89
:1005F0000064004080B485B000AF78603960554B2E
:100600009B68FB60FB6803F08063002B09D1FB68EB
:1006100003F00063002B04D1FB6803F08053002B30
:10062000F0D0FB681B0E03F00303BB60BB68022B1A
:1006300000F28A807B689B68002B0DD17B681B6869
:100640005A057B68DB685B0042491A43BB68183374
:100650001B010B441A6010E07B685B68DA007B6862
:100660009B689B001A437B68DB685B0039491A432F
:10067000BB6818331B010B441A6036497B681A6942
:10068000BB6818331B010B4404331A607B681B7D65
:10069000012B0FD12F4ABB6818331B0113440433BD
:1006A0001B682C4943F48072BB6818331B010B4450
:1006B00004331A603B6807331B781A063B6806331D
:1006C0001B781B041A433B6805331B781B0213433A
:1006D0003A68043212781F491A43BB681B010B4465
:1006E00003F5C6731A603B6803331B781A063B6830
:1006F00002331B781B041A433B6801331B781B022F
:1007000013433A68127813491A43BB681B010B4420
:1007100003F5C4731A600F4ABB6818331B011344F6
:100720001B680C4943F00102BB6818331B010B44E2
:100730001A6000BF074ABB6818331B0113441B68CB
:1007400003F00103012BF5D000BF00BF1437BD46F5
:1007500080BC70470064004080B400AF084B1B6849
:10076000074A23F00103136000BF054B5B6803F0E9
:100770000103002BF9D100BF00BFBD4680BC70470C
:100780000064004080B487B000AFF860B9607A6060
:10079000504AFB681B331B0113441B689B0803F082
:1007A0000102BB689A60BB689B68002B09D1494A6B
:1007B000FB681B331B0113441B685A0DBB681A608E
:1007C00008E0444AFB681B331B0113441B68DA082A
:1007D000BB685A603F4AFB681B331B0113441B680C
:1007E0005B0803F00102BB68DA603A4AFB681B331E
:1007F0001B01134404331B6803F00F02BB681A612A
:10080000344AFB681B331B01134404331B681B0A67
:10081000DAB2BB689A612F4AFB681B331B01134491
:1008200004331B681B0C9AB2BB685A610023FB752A
:1008300007E0FB7D7A68134400221A70FB7D0133C8
:10084000FB75FB7D072BF4D90023BB7527E0BB7D2F
:10085000032B10D81F4AFB681B01134403F5DC73FC
:100860001A68BB7DDB0022FA03F1BB7D7A68134472
:10087000CAB21A7010E0174AFB681B01134403F553
:10088000DE731A68BB7D043BDB0022FA03F1BB7DFB
:100890007A681344CAB21A70BB7D0133BB75BA7D46
:1008A000BB681B699A42D2D3FB68002B06D1094B67
:1008B000DB68084A43F02003D36005E0054B1B6961
:1008C000044A43F02003136100BF1C37BD4680BCBF
:1008D000704700BF0064004080B483B000AF03469F
:1008E000FB71FB79002B06D1084BDB68DBB203F010
:1008F0000303DBB205E0054B1B69DBB203F0030326
:10090000DBB218460C37BD4680BC7047006400401F
:1009100080B485B000AF7860644BD3F80032634A8E
:1009200043F00103C2F800327B685B69FB605F4BF8
:10093000D3F81C327A685269012101FA02F2D243DB
:1009400011465A4A0B40C2F81C327B68DB69002B07
:1009500028D1564BD3F80C320121FA6801FA02F281
:10096000D2431146514A0B40C2F80C327B68DB6817
:1009700019047B685B689AB24C487B685B690A43E0
:10098000483340F833207B689B6819047B681B68F8
:100990009AB246487B685B690A434833DB000344EC
:1009A0005A602AE07B68DB69012B26D13F4BD3F8E4
:1009B0000C320121FA6801FA02F211463B4A0B435C
:1009C000C2F80C327B681B6819047B685B689AB2BA
:1009D00036487B685B690A43483340F833207B68BC
:1009E0009B6819047B68DB689AB230487B685B6956
:1009F0000A434833DB0003445A607B689B69002B41
:100A00000DD12A4BD3F804320121FA6801FA02F21F
:100A1000D2431146254A0B40C2F804320BE0234B67
:100A2000D3F804320121FA6801FA02F211461F4A92
:100A30000B43C2F804327B681B69002B0DD11B4BA2
:100A4000D3F814320121FA6801FA02F2D2431146B6
:100A5000164A0B40C2F814320BE0144BD3F8143290
:100A60000121FA6801FA02F21146104A0B43C2F85A
:100A700014327B681B6A012B0BD10C4BD3F81C3250
:100A80000121FA6801FA02F21146084A0B43C2F842
:100A90001C32064BD3F80032044A23F00103C2F89B
:100AA000003200BF1437BD4680BC70470064004070
:100AB00080B485B000AF03460A46FB711346BB7194
:100AC000FB791B09FB73FB7903F00F03BB73FB7B03
:100AD000022B78D0022B00F3AE80002B02D0012B2A
:100AE00039D0A8E0BB7B072B17D8594B1B68BA7BC2
:100AF00092000F2101FA02F2D2431146544A0B40F0
:100B00001360534B1B68B979BA7B920001FA02F269
:100B100011464F4A0B4313608FE0BB7B0F2B00F253
:100B20008C804B4B5B68BA7B083A92000F2101FA2C
:100B300002F2D2431146464A0B405360444B5B6875
:100B4000B979BA7B083A920001FA02F21146404A9A
:100B50000B43536071E0BB7B072B17D83D4B1B68E1
:100B6000BA7B92000F2101FA02F2D2431146394AB0
:100B70000B401360374B1B68B979BA7B920001FABE
:100B800002F21146334A0B43136058E0BB7B0F2B34
:100B900055D8304B5B68BA7B083A92000F2101FAB6
:100BA00002F2D24311462B4A0B405360294B5B683B
:100BB000B979BA7B083A920001FA02F21146254A45
:100BC0000B4353603BE0BB7B072B17D8224B1B68C2
:100BD000BA7B92000F2101FA02F2D24311461E4A5B
:100BE0000B4013601C4B1B68B979BA7B920001FA69
:100BF00002F21146184A0B43136022E0BB7B0F2B15
:100C00001FD8154B5B68BA7B083A92000F2101FA96
:100C100002F2D2431146104A0B4053600E4B5B6800
:100C2000B979BA7B083A920001FA02F211460A4AEF
:100C30000B43536005E000BF04E000BF02E000BFCB
:100C400000E000BF00BF1437BD4680BC704700BF46
:100C500000080140000C01400010014080B485B044
:100C600000AF03460A46FB711346BB71FB791B09B3
:100C7000FB73FB7903F00F03BB73BB7B0F2B40D8D7
:100C8000BB79012B1BD1FB7B022B12D0022B35DC55
:100C9000002B02D0012B06D030E0BB7B01229A4012
:100CA0001A4B1A612DE0BB7B01229A40184B1A6146
:100CB00027E0BB7B01229A40164B1A6121E0BB79E9
:100CC000002B1ED1FB7B022B12D0022B18DC002B39
:100CD00002D0012B06D013E0BB7B01229A400B4BC4
:100CE0005A610EE0BB7B01229A40094B5A6108E031
:100CF000BB7B01229A40074B5A6102E000BF00E033
:100D000000BF00BF1437BD4680BC704700080140DB
:100D1000000C01400010014080B485B000AF0346D4
:100D20000A46FB711346BB71FB791B09FB73FB7908
:100D300003F00F03BB73FB7B022B40D0022B5BDC69
:100D4000002B02D0012B1DD056E0BB79002B0AD11D
:100D50002F4BDB68BA7B012101FA02F211462C4AC3
:100D60000B43D3604AE0BB79012B47D1284BDB68AA
:100D7000BA7B012101FA02F2D2431146244A0B4008
:100D8000D3603BE0BB79002B0AD1224BDB68BA7BF6
:100D9000012101FA02F211461E4A0B43D3602FE0F3
:100DA000BB79012B2CD11B4BDB68BA7B012101FAEB
:100DB00002F2D2431146174A0B40D36020E0BB79C0
:100DC000002B0AD1144BDB68BA7B012101FA02F235
:100DD0001146114A0B43D36014E0BB79012B11D1AA
:100DE0000D4BDB68BA7B012101FA02F2D2431146B6
:100DF000094A0B40D36005E000BF04E000BF02E0F9
:100E000000BF00E000BF00BF1437BD4680BC704784
:100E100000080140000C01400010014080B483B084
:100E200000AF0346FB71FB791F2B0AD80F4B1B68E1
:100E3000FA79012101FA02F211460C4A0B431360C0
:100E40000FE0FB793B2B0CD8FB79203BFB71074B68
:100E50005B68FA79012101FA02F21146034A0B4359
:100E6000536000BF0C37BD4680BC704700E100E016
:100E700080B400AF0A4B5B68094A23F0010353605A
:100E8000074B5B68064A23F002035360044B1B6860
:100E9000034A43F00103136000BFBD4680BC7047A6
:100EA0000010024080B483B000AF03460A46FB71D5
:100EB0001346BB71BB791F2B2AD8FB79022B1CD0A0
:100EC000022B25DC002B02D0012B0BD020E0134B92
:100ED0005B69BA79012101FA02F211460F4A0B430C
:100EE000536115E00D4BDB69BA79012101FA02F279
:100EF00011460A4A0B43D3610AE0084B9B69BA7951
:100F0000012101FA02F21146044A0B43936100BF2A
:100F100000BF0C37BD4680BC704700BF00100240C8
:100F200080B483B000AF0346FB71FB79314A52F8BD
:100F300023301A68FB792F4951F8233022F001023F
:100F40001A60FB792B4A52F823301A68FB79294939
:100F500051F8233022F002021A60FB79254A52F838
:100F600023301A68FB79234951F8233042F00402F8
:100F70001A60FB791F4A52F823301A68FB791D4921
:100F800051F8233042F010021A60FB79194A52F8E6
:100F900023301A68FB79174951F8233022F0800278
:100FA0001A60FB79134A52F823301A68FB79114909
:100FB00051F8233022F400721A60FB790D4A52F87E
:100FC00023301A68FB790B4951F8233022F4006270
:100FD0001A60FB79074A52F823301A68FB790549F1
:100FE00051F8233042F040021A6000BF0C37BD4672
:100FF00080BC70470000002080B582B000AF03467F
:101000003A60FB710B46BB71FB79002B04D10021C8
:101010000020FFF723FE03E000210120FFF71EFE62
:10102000FB791A4A52F82330BA79DA6000BFFB79AB
:10103000164A52F823309B68DB0903F00103012BA9
:1010400008D1FB79114A52F823309B6803F0010361
:10105000012BECD03B68002B07D0FB790B4A52F8F0
:101060002330DB68DAB23B681A70FB79002B04D1BD
:1010700001210020FFF7F2FD03E001210120FFF72D
:10108000EDFD00BF0837BD4680BD00BF0000002059
:1010900080B500AF024B1B68984700BF80BD00BF02
:1010A0007800002080B400AF034B00221A6000BF1C
:1010B000BD4680BC704700BF10E000E080B483B044
:1010C00000AF7860104A7B6853600F4B1B680E4A74
:1010D00043F00103136000BF0B4B1B6803F4803324
:1010E000002BF9D0084B1B68074A23F0010313605B
:1010F000054B00225A60044B00229A6000BF0C3757
:10110000BD4680BC704700BF10E000E080B400AF77
:101110000A4B1B68094A23F002031360074B1B6844
:10112000064A23F001031360044B00225A60034B6C
:1011300000229A6000BFBD4680BC704710E000E00E
:1011400080B582B000AF0A4B1B78002B01D1FFF7AE
:10115000DDFF084B1B689847074B1B681B0CDBB275
:1011600003F00103FB7100BF0837BD4680BD00BF1F
:10117000800000207C00002010E000E080B483B0FC
:1011800000AF0346FB71FB791A4A52F8233040F254
:1011900041329A60FB79174A52F82330DA68FB79BA
:1011A000144951F8233022F48052DA60FB79114A55
:1011B00052F82320FB790F4951F8233012691A6144
:1011C000FB790C4A52F82330DB68FA79094951F867
:1011D000222043F4005343F00C03D360FB79054A0B
:1011E00052F8233000221A6000BF0C37BD4680BC85
:1011F000704700BF0C00002080B483B000AF0346EE
:10120000FB71FB79074A52F82330DA68FB7905490C
:1012100051F8233042F02002DA6000BF0C37BD469F
:1012200080BC70470C00002080B483B000AF034640
:101230000A46FB711346BB71FB790A4A52F8233008
:10124000BA795A6000BFFB79064A52F823301B680E
:1012500003F04003002BF6D000BF00BF0C37BD46A3
:1012600080BC70470C00002080B483B000AF786071
:10127000034A7B68136000BF0C37BD4680BC7047D3
:101280008400002080B500AF054B1B681B6803F08D
:101290002003002B02D0034B1B68984700BF80BD82
:1012A0000C0000208400002080B483B000AF786080
:1012B000034A7B68136000BF0C37BD4680BC704793
:1012C0008800002080B500AF054B5B681B6803F009
:1012D0002003002B02D0034B1B68984700BF80BD42
:1012E0000C0000208800002080B483B000AF0346CB
:1012F000FB71FB79044A52F823305B68DBB2184675
:101300000C37BD4680BC70470C00002080B586B00D
:1013100000AF40F25D633B600023BB600023FB60D5
:1013200002233B613B4604491846FFF763F900BFBF
:101330001837BD4680BD00BF8C00002080B588B046
:1013400000AF00BF0020FFF7C7FA0346002BF9D01B
:101350003B1D234A19460020FFF714FAFFF78EF8C9
:1013600000210020FFF76AF81D4B1B78032B02D9E0
:101370001B4B01225A701A4B5B781A4613465B00CE
:1013800013445B00174A13441846FFF73BF820202C
:10139000FFF72BF8124B1B781A4613465B001344D9
:1013A0005B00114A13441846FFF72CF82020FFF782
:1013B0001CF80B4B5B78002B0ED1094B1B78012BD3
:1013C0000AD8074B9B781A4613469B001344074ADA
:1013D00013441846FFF716F800BF2037BD4680BDFE
:1013E0009000002044000020200000205000002039
:1013F00080B483B000AF0346FB80FB885B019BB2E7
:1014000018460C37BD4680BC704780B58AB000AF27
:1014100001237B620023BB6100237B6140F25D609E
:10142000FFF7E6FF03467B600023BB600023FB6001
:1014300000233B610023FB6101233B623B1D1846F7
:10144000FFF766FA00BF2837BD4680BD80B500AF04
:101450005B4B00221A70A2E03220FFF72FFE584BA0
:101460001B78DBB2002B1CD1554B1B78DBB2194625
:101470000120FEF7E3FF534B1B781846FFF708F8EF
:10148000514B1B78DBB24F4A127811461846FFF7D2
:10149000CBFE4B4B1B78DBB20133DAB2484B1A70F0
:1014A0007DE0474B1B78DBB2012B1ED1444B1B78F0
:1014B000DBB20133DBB219460120FEF7BFFF414B1F
:1014C0005B781846FEF7E4FF3F4B1B78DBB23D4AE2
:1014D000527811461846FFF7A7FE394B1B78DBB24E
:1014E0000133DAB2364B1A7059E0364B5B78002B79
:1014F0001BD1354B1B78DBB2324A92781146184625
:10150000FFF792FE2F4B9A78304B5A702C4B1B787A
:10151000DBB20233DBB219460120FEF78FFF2B4B03
:101520005B781846FEF7B4FF3FE0294B1B78DBB22F
:10153000012B34D1264B00221A70264B1B78DBB2CC
:10154000254A00211846FFF757FD234B1B78DAB2D6
:101550001E4B5A701A4B1B78DBB20233DBB21946B2
:101560000120FEF76BFF164B1B78DBB21846FEF727
:101570008FFF134B1B78DBB20133DAB2104B1A70BA
:101580000F4B1B78DBB2042B09D80F4B1B78DBB257
:10159000114A1278D2B211461846FFF745FE084BA1
:1015A0001B78DBB2042B7FF657AF094B00221A7071
:1015B000044B1A78054B1A70FFF7A8FE00BF80BDD8
:1015C0009500002090000020960000208C00002054
:1015D00094000020970000209300002080B582B086
:1015E00000AF074B01221A70064B1B78DBB218467E
:1015F000FFF77AFE0346FB7100BF0837BD4680BD8A
:10160000940000209600002080B500AFFFF730FC6A
:1016100002210220FFF746FC03210220FFF742FCD3
:101620000C210220FFF73EFC0E210120FFF73AFCBF
:1016300001210120FFF73CFA01210020FFF738FAD1
:1016400008210420FFF734FA09210520FFF730FABA
:1016500004210620FFF72CFA09210720FFF728FABA
:1016600000210420FFF758FB01210120FFF720FA99
:1016700008211C20FFF71CFA09211D20FFF718FA8A
:1016800004211E20FFF714FA09211F20FFF710FA8A
:1016900000211C20FFF740FB0020FFF741FC012048
:1016A000FFF73EFC0E210220FFF7FCFB08210A2079
:1016B000FFF7FEF901210A20FFF72EFB0A2109207E
:1016C000FFF7F6F911210120FFF7ECFB08210320B9
:1016D000FFF7EEF901210320FFF71EFB0A2102208C
:1016E000FFF7E6F92520FFF799FB2620FFF796FB89
:1016F0001948FFF7B9FD0020FFF77EFD0020FFF736
:101700003DFD1548FFF7D0FD0120FFF775FD0120D5
:10171000FFF734FDFFF7C6FCFEF74BFEFEF730FE89
:10172000FEF706FFFFF771FEFFF716F8FFF706FE5C
:101730000A4B1B78032B06D8094B00221A70094B61
:1017400000221A7005E0064B01221A70054B012297
:101750001A70FFF77BFEE9E7DD1500089000002016
:1017600096000020970000200D488546AFF30080CA
:101770000C480D490D4A002302E0D458C4500433EC
:10178000C4188C42F9D30A4A0A4C002301E01360C2
:101790000432A242FBD300F011F8FFF735FFFEE759
:1017A00000500020000000205C00002024180008E9
:1017B0005C00002098000020FEE7000070B50026C5
:1017C0000C4D0D4C641BA410A64209D100F01AF870
:1017D00000260A4D0A4C641BA410A64205D170BD18
:1017E00055F8043B98470136EEE755F8043B984717
:1017F0000136F2E71C1800081C1800081C18000825
:1018000020180008F8B500BFF8BC08BC9E46704719
:0C181000F8B500BFF8BC08BC9E4670474D
:04181C00550100086A
:04182000310100088A
:101824000030014000380040003C004000380140D6
:101834000044004000480040004C0040005000407C
:1018440046524F4E54004241434B000042454C54D3
:1018540000004D4F544F520054454D5000004C4928
:10186400474854005772697465005265616400000A
:0C1874004C6F77000048696768000000B6
:04000005080017696F
:00000001FF
