:020000040800F2
:1000000000500020811E0008D11E0008D11E0008EB
:10001000D11E0008D11E0008D11E000800000000FB
:10002000000000000000000000000000610B00085C
:10003000D11E000800000000510C0008990C0008B7
:10004000D11E0008D11E0008D11E0008D11E0008D4
:10005000D11E0008D11E0008D11E0008D11E0008C4
:10006000D11E0008D11E0008D11E0008D11E0008B4
:10007000D11E0008D11E0008D11E0008D11E0008A4
:10008000D11E0008D11E0008D11E0008D11E000894
:10009000D11E0008D11E0008D11E0008D11E000884
:1000A000D11E0008D11E0008D11E0008D11E000874
:1000B000D11E0008D11E0008D11E0008D11E000864
:1000C000D11E0008D11E0008D11E0008D11E000854
:1000D000D11E0008DD1A0008D11E0008D11E00083C
:1000E000D11E0008D11E000800000000D11E00082B
:1000F000D11E0008D11E0008D11E0008D11E000824
:10010000D11E0008D11E0008D11E0008D11E000813
:10011000D11E0008D11E0008D11E0008D11E000803
:10012000D11E0008D11E0008D11E0008D11E0008F3
:1001300010B5054C237833B9044B13B10448AFF321
:1001400000800123237010BD20000020000000006B
:100150001C1F000808B5034B1BB103490348AFF34C
:10016000008008BD00000000240000201C1F0008C3
:1001700080B483B000AF78607B6803F108027B68CD
:100180005A607B684FF0FF329A607B6803F1080287
:100190007B68DA607B6803F108027B681A617B6820
:1001A00000221A6000BF0C37BD4680BC704780B487
:1001B00083B000AF78607B6800221A6100BF0C3703
:1001C000BD4680BC704780B485B000AF78603960B0
:1001D0007B685B68FB603B68FA685A60FB689A68FA
:1001E0003B689A60FB689B683A685A60FB683A68AB
:1001F0009A603B687A681A617B681B685A1C7B6846
:100200001A6000BF1437BD4680BC704780B485B00B
:1002100000AF78607B681B69FB607B685B687A680D
:1002200092689A607B689B687A6852685A60FB683B
:100230005B687A689A4203D17B689A68FB685A6067
:100240007B6800221A61FB681B685A1EFB681A60F3
:10025000FB681B6818461437BD4680BC704780B5E4
:100260008CB004AFF860B9603B601346FB80FB883C
:100270009B00184600F04CFD78617B69002B0ED086
:10028000542000F045FDF861FB69002B03D0FB69A9
:100290007A691A6305E0786900F0D4FD01E0002373
:1002A000FB61FB69002B13D0FA8800230393FB69E1
:1002B0000293FB6A0193BB6A00933B68B968F868D4
:1002C00000F00EF8F86900F083F80123BB6102E04A
:1002D0004FF0FF33BB61BB6918462037BD4680BD78
:1002E00080B586B000AFF860B9607A603B60BB6AE9
:1002F0001A6B7B6803F18043013B9B0013443B6115
:100300003B6923F007033B61BB68002B1FD0002330
:100310007B6112E0BA687B6913441978BA6A7B6919
:10032000134434330A461A70BA687B6913441B7845
:10033000002B06D07B6901337B617B690F2BE9D9E8
:1003400000E000BFBB6A002283F8432003E0BB6AE1
:10035000002283F834203B6A042B01D904233B623A
:10036000BB6A3A6ADA62BB6A3A6A5A64BB6A0022BA
:100370009A64BB6A04331846FFF719FFBB6A183347
:100380001846FFF714FFBB6ABA6A1A613B6AC3F1E9
:100390000502BB6A9A61BB6ABA6A5A62BB6A0022EA
:1003A000DA64BB6A002283F850203A68F968386939
:1003B00000F090FB0246BB6A1A607B6A002B02D0F9
:1003C0007B6ABA6A1A6000BF1837BD4680BD00005C
:1003D00080B582B000AF786000F006FC244B1B684B
:1003E0000133234A1360234B1B68002B09D1214A98
:1003F0007B6813601E4B1B68012B10D100F0CCFAF8
:100400000DE01D4B1B68002B09D11A4B1B68DA6AE3
:100410007B68DB6A9A4202D8164A7B681360174BE6
:100420001B680133154A13607B68DB6A01229A401E
:10043000134B1B681343124A13607B68DA6A134636
:100440009B0013449B000F4A1A447B6804331946EF
:100450001046FFF7B8FE00F0E1FB074B1B68002BCE
:1004600001D0044B1B6800BF0837BD4680BD00BFEC
:10047000140100203C000020200100203001002059
:100480001C0100204000002080B584B000AF7860DF
:1004900000F0AAFB7B68002B02D1354B1B6800E003
:1004A0007B68FB60FB6804331846FFF7AFFE03462A
:1004B000002B15D1FB68DA6A2E4913469B001344C2
:1004C0009B000B441B68002B0AD1FB68DB6A0122EE
:1004D00002FA03F3DA43284B1B681340264A1360E1
:1004E000FB689B6A002B04D0FB6818331846FFF7A3
:1004F0008DFEFB68043319462048FFF764FEFB6855
:1005000093F85030DBB2012B03D1FB68002283F853
:10051000502000F083FB1A4B1B68002B05D000F025
:1005200063FB00F0B7FA00F079FB114B1B68FA6827
:100530009A4218D1124B1B68002B08D0114B4FF078
:1005400080521A60BFF34F8FBFF36F8F0BE00B4BDE
:100550001A680D4B1B689A4203D1054B00221A60A2
:1005600001E000F0C1F900BF1037BD4680BD00BFFB
:100570003C000020400000201C0100200001002061
:100580002001002004ED00E01401002080B485B0BB
:1005900000AF78600023FB607B68BB60BB685B6971
:1005A000094A93420AD1BB689B6A084A934205D024
:1005B000BB689B6A002B01D10123FB60FB681846D6
:1005C0001437BD4680BC704700010020D4000020D5
:1005D00080B584B000AF78607B68FB60194B1B6806
:1005E000FA689A422AD0FB68002B27D000F0FCFA68
:1005F000F868FFF7CBFF0346002B1DD0FB680433E0
:100600001846FFF703FEFB68DB6A01229A400E4B97
:100610001B6813430C4A1360FB68DA6A13469B009D
:1006200013449B00094A1A44FB68043319461046D8
:10063000FFF7C9FD034B1B6800F0F0FA00BF10374D
:10064000BD4680BD3C0000201C0100204000002071
:1006500080B584B002AF144B0193002300930023B4
:10066000802212491248FFF7FAFD78607B68012B5F
:1006700015D14FF0BF0383F31188BFF36F8FBFF322
:100680004F8F3B6000BF0B4B4FF0FF321A600A4B9D
:1006900001221A60094B00221A6000F085FA00BF9F
:1006A0000837BD4680BD00BF38010020341F000858
:1006B00075090008340100202001002018010020E5
:1006C00080B400AF044B1B680133034A136000BFC2
:1006D000BD4680BC704700BF3C01002080B584B09F
:1006E00000AF0023FB6000237B6000F07DFA334BFA
:1006F0001B68013B314A1360304B1B68002B55D1FE
:100700002F4B1B68002B51D02EE02E4BDB68DB6893
:10071000FB60FB6818331846FFF778FDFB6804336D
:100720001846FFF773FDFB68DB6A01229A40264BEF
:100730001B681343244A1360FB68DA6A13469B0064
:1007400013449B00214A1A44FB680433194610469F
:10075000FFF739FDFB68DA6A1D4B1B68DB6A9A42BA
:1007600002D31C4B01221A60164B1B68002BCCD104
:10077000FB68002B01D000F08DF9174B1B68BB60A4
:10078000BB68002B10D000F029F80346002B02D0E4
:10079000104B01221A60BB68013BBB60BB68002B99
:1007A000F1D10D4B00221A600A4B1B6800F036FA9B
:1007B0007B6818461037BD4680BD00BF3C01002055
:1007C00014010020D40000201C0100204000002063
:1007D0003C000020280100202401002080B586B0C4
:1007E00000AF00237B61374B1B68002B5FD1364B7A
:1007F0001B6801333B61344A3B6913603B69002B42
:1008000010D1324B1B68FB60314B1B682F4A1360C1
:100810002F4AFB6813602F4B1B6801332D4A13606E
:1008200000F038F92C4B1B683A699A4244D3274BA5
:100830001B681B68002B04D1274B4FF0FF321A6056
:100840003AE0224B1B68DB68DB68BB60BB685B6817
:100850007B603A697B689A4203D21F4A7B681360C7
:100860002AE0BB6804331846FFF7D0FCBB689B6ADC
:10087000002B04D0BB6818331846FFF7C7FCBB68D1
:10088000DB6A01229A40154B1B681343134A13601D
:10089000BB68DA6A13469B0013449B00104A1A4453
:1008A000BB68043319461046FFF78DFCBFE70D4BBC
:1008B0001B6801330B4A13607B6918461837BD4625
:1008C00080BD00BF3C01002018010020CC000020AA
:1008D000D00000202C010020340100201C01002049
:1008E000400000202401002080B485B000AF1C4BE4
:1008F0001B68002B03D01B4B01221A602AE0194B06
:1009000000221A60184B1B687B607B68B3FA83F384
:10091000FB70FB78C3F11F03FB60FA6813469B0072
:1009200013449B00114A1344BB60BB685B685A6860
:10093000BB685A60BB685A68BB6808339A4204D1E6
:10094000BB685B685A68BB685A60BB685B68DB68F9
:10095000074A136000BF1437BD4680BC704700BF14
:100960003C010020280100201C0100204000002044
:100970003C00002080B582B000AF786000F04CF8F9
:10098000044B4FF080521A60BFF34F8FBFF36F8F4D
:10099000F4E700BF04ED00E080B582B000AF0023B3
:1009A0007B600CE07A6813469B0013449B00124A5C
:1009B00013441846FFF7DCFB7B6801337B607B68E0
:1009C000042BEFD90D48FFF7D3FB0D48FFF7D0FB01
:1009D0000C48FFF7CDFB0C48FFF7CAFB0B48FFF7AD
:1009E000C7FB0B4B054A1A600A4B054A1A6000BF49
:1009F0000837BD4680BD00BF40000020A400002095
:100A0000B8000020D4000020E800002000010020F1
:100A1000CC000020D000002080B582B000AF19E0EB
:100A200000F0E2F8104BDB68DB687B607B68043326
:100A30001846FFF7EBFB0D4B1B68013B0B4A13609D
:100A40000B4B1B68013B0A4A136000F0E7F878681B
:100A500000F010F8064B1B68002BE1D100BF00BF6F
:100A60000837BD4680BD00BFE8000020140100200B
:100A7000FC00002080B582B000AF78607B681B6B03
:100A8000184600F0DFF9786800F0DCF900BF08379D
:100A9000BD4680BD80B483B000AF0C4B1B681B68A3
:100AA000002B04D10A4B4FF0FF321A6008E0074BCD
:100AB0001B68DB68DB687B607B685B68044A1360EB
:100AC00000BF0C37BD4680BC704700BFCC00002083
:100AD0003401002080B485B000AFF860B9607A605E
:100AE000FB68043BFB60FB684FF080721A60FB6898
:100AF000043BFB60BB6823F00102FB681A60FB68E3
:100B0000043BFB60084AFB681A60FB68143BFB600F
:100B10007A68FB681A60FB68203BFB60FB6818463C
:100B20001437BD4680BC70472D0B000880B483B0DD
:100B300000AF00233B604FF0BF0383F31188BFF386
:100B40006F8FBFF34F8F7B6000BF00BF3B68002BF0
:100B5000FCD000BF00BF0C37BD4680BC7047000012
:100B6000074B19680868B0E8F00F80F30988BFF3F5
:100B70006F8F4FF0000080F311884EF00D0E70471C
:100B80003C00002000BF00BF06480068006880F3FA
:100B9000088862B661B6BFF34F8FBFF36F8F00DF77
:100BA00000BF00BF08ED00E080B500AF0C4B1B6834
:100BB0000B4A43F47F031360094B1B68084A43F058
:100BC0007F43136000F08AF8064B00221A60FFF79B
:100BD000DBFFFFF789FEFFF7A9FF0023184680BD62
:100BE00020ED00E00000002080B483B000AF4FF0A3
:100BF000BF0383F31188BFF36F8FBFF34F8F7B6009
:100C000000BF054B1B680133034A136000BF0C375C
:100C1000BD4680BC704700BF0000002080B483B098
:100C200000AF0A4B1B68013B084A1360074B1B6867
:100C3000002B05D100237B607B6883F3118800BF04
:100C400000BF0C37BD4680BC704700BF00000020CD
:100C5000EFF30980BFF36F8F0D4B1A6820E9F00F97
:100C600010602DE908404FF0BF0080F31188FFF7B6
:100C70003BFE4FF0000080F31188BDE80840196882
:100C80000868B0E8F00F80F30988BFF36F8F7047F2
:100C90003C00002000BF00BF80B582B000AF4FF025
:100CA000BF0383F31188BFF36F8FBFF34F8F7B6058
:100CB00000BFFFF793FD0346002B03D0064B4FF018
:100CC00080521A6000233B603B6883F3118800BFA9
:100CD00000BF0837BD4680BD04ED00E080B400AF22
:100CE000084B00221A60084B00221A60074B41F69D
:100CF0003F721A60034B07221A6000BFBD4680BCDA
:100D0000704700BF10E000E018E000E014E000E0F1
:100D100080B586B000AF78600023FB60FFF7D0FCA1
:100D2000424B1B68002B01D100F0CCF8404B1A68F5
:100D30007B681340002B72D17B68002B0DD00822FA
:100D40007B6813447B607B6803F00703002B04D0AF
:100D50007B6823F0070308337B607B68002B5ED041
:100D6000344B1B687A689A4259D8334B3B61324BFB
:100D70001B687B6104E07B693B617B691B687B616D
:100D80007B695B687A689A4203D97B691B68002B90
:100D9000F1D1264B1B687A699A4240D03B691B68A7
:100DA00008221344FB607B691A683B691A607B69FF
:100DB0005A687B68D21A08235B009A420FD97A6975
:100DC0007B681344BB607B695A687B68D21ABB6836
:100DD0005A607B697A685A60B86800F0D5F8154B9C
:100DE0001A687B695B68D31A124A1360114B1A6840
:100DF000124B1B689A4203D20E4B1B680F4A1360BA
:100E00007B695A680A4B1B681A437B695A607B6985
:100E100000221A600A4B1B680133094A1360FFF76E
:100E20005DFCFB6818461837BD4680BD484500206C
:100E30005C4500204C4500204045002050450020E6
:100E40005445002080B584B000AF78607B68FB60BB
:100E50007B68002B2CD008235B42FA681344FB60AC
:100E6000FB68BB60BB685A68134B1B681340002BC0
:100E70001ED0BB681B68002B1AD1BB685A680E4B8A
:100E80001B68DB431A40BB685A60FFF719FCBB685C
:100E90005A680A4B1B681344084A1360B86800F08C
:100EA00073F8074B1B680133054A1360FFF716FC04
:100EB00000BF1037BD4680BD5C4500204C4500207A
:100EC0005845002080B485B000AF4FF48843BB6024
:100ED000274BFB60FB6803F00703002B0CD0FB687B
:100EE0000733FB60FB6823F00703FB60BA68FB680D
:100EF000D31A1F4A1344BB60FB687B601D4A7B68A2
:100F000013601C4B00225A607B68BA681344FB6074
:100F10000822FB689B1AFB60FB6823F00703FB6059
:100F2000FB68154A1360144B1B6800225A60124B71
:100F30001B6800221A607B683B603B68FA68D21A23
:100F40003B685A600C4B1A683B681A603B685B68E8
:100F50000A4A13603B685B68094A1360094B4FF00B
:100F600000421A6000BF1437BD4680BC704700BF06
:100F70004001002040450020484500205045002009
:100F80004C4500205C45002080B485B000AF7860FF
:100F9000274BFB6002E0FB681B68FB60FB681B687B
:100FA0007A689A42F7D8FB68BB60FB685B68BA68EE
:100FB00013447A689A4208D1FB685A687B685B6878
:100FC0001A44FB685A60FB687B607B68BB607B6887
:100FD0005B68BA681A44FB681B689A4218D1FB68C0
:100FE0001A68144B1B689A420DD07B685A68FB68DC
:100FF0001B685B681A447B685A60FB681B681A6848
:101000007B681A6008E00B4B1A687B681A6003E083
:10101000FB681A687B681A60FA687B689A4202D09B
:10102000FB687A681A6000BF1437BD4680BC704701
:10103000404500204845002080B485B000AF78606E
:1010400039600023FB601323BB60BB685A1EBA6083
:101050003A68134400221A707B68002B22DA0123BD
:10106000FB607B685B427B601CE07A68194B83FB0A
:1010700002139910D317C91A0B469B000B445B004F
:10108000D11ACAB2BB68591EB96039680B443032F4
:10109000D2B21A707B680F4A82FB03129210DB17E0
:1010A000D31A7B607B68002BDFD1FB68002B06D056
:1010B000BB685A1EBA603A6813442D221A70BB6886
:1010C0000133BB603A68BB68134418461437BD4609
:1010D00080BC70476766666680B400AF274B1B68AC
:1010E000264A23F00203136000BF244B5B6803F021
:1010F0000203002BF9D1214B1B68204A43F0010366
:10110000136000BF1D4B5B6803F00103012BF9D195
:101110001A4B1B68194A23F004031360174B1B6812
:10112000164A23F008031360144B1B68134A23F07C
:1011300010031360114B1B68104A43F02003136027
:101140000E4B1B680D4A43F0400313600B4B1B68AA
:101150000A4A23F0800313600223013B1B051A4651
:101160000F23013B1B0413430422013A1146034A97
:101170000B43D36100BFBD4680BC70470064004094
:1011800080B485B000AF78603960554B9B68FB60D8
:10119000FB6803F08063002B09D1FB6803F0006358
:1011A000002B04D1FB6803F08053002BF0D0FB68C8
:1011B0001B0E03F00303BB60BB68022B00F28A80A6
:1011C0007B689B68002B0DD17B681B685A057B6888
:1011D000DB685B0042491A43BB6818331B010B44B0
:1011E0001A6010E07B685B68DA007B689B689B0094
:1011F0001A437B68DB685B0039491A43BB681833C4
:101200001B010B441A6036497B681A69BB681833A6
:101210001B010B4404331A607B681B7D012B0FD12B
:101220002F4ABB6818331B01134404331B682C4935
:1012300043F48072BB6818331B010B4404331A60FB
:101240003B6807331B781A063B6806331B781B0480
:101250001A433B6805331B781B0213433A68043278
:1012600012781F491A43BB681B010B4403F5C67370
:101270001A603B6803331B781A063B6802331B78FD
:101280001B041A433B6801331B781B0213433A6863
:10129000127813491A43BB681B010B4403F5C4734E
:1012A0001A600F4ABB6818331B0113441B680C49B2
:1012B00043F00102BB6818331B010B441A6000BFE6
:1012C000074ABB6818331B0113441B6803F0010372
:1012D000012BF5D000BF00BF1437BD4680BC70475E
:1012E0000064004080B400AF084B1B68074A23F03D
:1012F0000103136000BF054B5B6803F00103002B83
:10130000F9D100BF00BFBD4680BC704700640040FB
:1013100080B487B000AFF860B9607A60504AFB686B
:101320001B331B0113441B689B0803F00102BB68BD
:101330009A60BB689B68002B09D1494AFB681B3344
:101340001B0113441B685A0DBB681A6008E0444A2D
:10135000FB681B331B0113441B68DA08BB685A6027
:101360003F4AFB681B331B0113441B685B0803F0F7
:101370000102BB68DA603A4AFB681B331B01134465
:1013800004331B6803F00F02BB681A61344AFB6820
:101390001B331B01134404331B681B0ADAB2BB68FE
:1013A0009A612F4AFB681B331B01134404331B68EB
:1013B0001B0C9AB2BB685A610023FB7507E0FB7DEA
:1013C0007A68134400221A70FB7D0133FB75FB7DA4
:1013D000072BF4D90023BB7527E0BB7D032B10D866
:1013E0001F4AFB681B01134403F5DC731A68BB7DBD
:1013F000DB0022FA03F1BB7D7A681344CAB21A708B
:1014000010E0174AFB681B01134403F5DE731A68EA
:10141000BB7D043BDB0022FA03F1BB7D7A681344F9
:10142000CAB21A70BB7D0133BB75BA7DBB681B693C
:101430009A42D2D3FB68002B06D1094BDB68084ADD
:1014400043F02003D36005E0054B1B69044A43F0D9
:101450002003136100BF1C37BD4680BC704700BF2E
:101460000064004080B483B000AF0346FB71FB7999
:10147000002B06D1084BDB68DBB203F00303DBB2C1
:1014800005E0054B1B69DBB203F00303DBB2184632
:101490000C37BD4680BC70470064004080B485B006
:1014A00000AF7860644BD3F80032634A43F0010325
:1014B000C2F800327B685B69FB605F4BD3F81C327B
:1014C0007A685269012101FA02F2D24311465A4A5E
:1014D0000B40C2F81C327B68DB69002B28D1564BCD
:1014E000D3F80C320121FA6801FA02F2D243114614
:1014F000514A0B40C2F80C327B68DB6819047B68E8
:101500005B689AB24C487B685B690A43483340F891
:1015100033207B689B6819047B681B689AB2464835
:101520007B685B690A434833DB0003445A602AE066
:101530007B68DB69012B26D13F4BD3F80C320121AC
:10154000FA6801FA02F211463B4A0B43C2F80C3228
:101550007B681B6819047B685B689AB236487B68B5
:101560005B690A43483340F833207B689B68190461
:101570007B68DB689AB230487B685B690A43483312
:10158000DB0003445A607B689B69002B0DD12A4B1A
:10159000D3F804320121FA6801FA02F2D24311466B
:1015A000254A0B40C2F804320BE0234BD3F8043237
:1015B0000121FA6801FA02F211461F4A0B43C2F8F0
:1015C00004327B681B69002B0DD11B4BD3F81432FE
:1015D0000121FA6801FA02F2D2431146164A0B4081
:1015E000C2F814320BE0144BD3F814320121FA681C
:1015F00001FA02F21146104A0B43C2F814327B681A
:101600001B6A012B0BD10C4BD3F81C320121FA6859
:1016100001FA02F21146084A0B43C2F81C32064B8B
:10162000D3F80032044A23F00103C2F8003200BFAD
:101630001437BD4680BC70470064004080B483B05E
:1016400000AF0346FB710B46BB7113467B71BB7940
:101650000F2B00F2A280FB79022B79D0022B00F332
:101660009580002B02D0012B39D08FE0BB79072B5E
:1016700017D84C4B1B68BA7992000F2101FA02F27D
:10168000D2431146474A0B401360464B1B68797999
:10169000BA79920001FA02F21146424A0B431360F2
:1016A00076E0BB790F2B73D8BB79083BBB713E4BFF
:1016B0001B68BA7992000F2101FA02F2D243114657
:1016C000394A0B401360384B1B687979BA7992001C
:1016D00001FA02F21146344A0B43136058E0BB7919
:1016E000072B17D8314B1B68BA7992000F2101FAEA
:1016F00002F2D24311462D4A0B4013602B4B1B685C
:101700007979BA79920001FA02F21146274A0B431D
:1017100013603FE0BB790F2B3CD8BB79083BBB7112
:10172000234B1B68BA7992000F2101FA02F2D243CF
:1017300011461F4A0B4013601D4B1B687979BA791B
:10174000920001FA02F21146194A0B43136021E09C
:10175000BB790C2B20D9BB79083BBB71154B1B689F
:10176000BA7992000F2101FA02F2D2431146114ACE
:101770000B4013600F4B1B687979BA79920001FA1C
:1017800002F211460B4A0B43136005E000BF04E070
:1017900000BF02E000BF00E000BF00BF0C37BD4645
:1017A00080BC70470008014004080140000C014063
:1017B000040C01400410014080B483B000AF034624
:1017C000FB710B46BB7113467B71BB790F2B40D865
:1017D0007B79012B1BD1FB79022B12D0022B35DC3C
:1017E000002B02D0012B06D030E0BB7901229A40B9
:1017F0001A4B1A602DE0BB7901229A40184B1A60EF
:1018000027E0BB7901229A40164B1A6021E07B79D0
:10181000002B1ED1FB79022B12D0022B18DC002BDF
:1018200002D0012B06D013E0BB7901229A400E4B67
:101830001A600EE0BB7901229A400C4B1A6008E056
:10184000BB7901229A400A4B1A6002E000BF00E017
:1018500000BF00BF0C37BD4680BC70471008014078
:10186000100C01401010014014080140140C0140FC
:101870001410014080B483B000AF0346FB71FB79C4
:101880001F2B0AD80F4B1B68FA79012101FA02F2CB
:1018900011460C4A0B4313600FE0FB793B2B0CD82D
:1018A000FB79203BFB71074B5B68FA79012101FA58
:1018B00002F21146034A0B43536000BF0C37BD468A
:1018C00080BC704700E100E080B400AF0A4B5B6869
:1018D000094A23F001035360074B5B68064A23F073
:1018E00002035360044B1B68034A43F00103136077
:1018F00000BFBD4680BC70470010024080B483B07A
:1019000000AF03460A46FB711346BB71BB791F2B20
:101910002BD8FB79022B1CD0022B25DC002B02D00C
:10192000012B0BD020E0134B5B69BA79012101FA3E
:1019300002F211460F4A0B43536116E00D4BDB696F
:10194000BA79012101FA02F211460A4A0B43D36126
:101950000BE0084B9B69BA79012101FA02F21146AA
:10196000044A0B43936100E000BF00BF0C37BD4643
:1019700080BC70470010024080B483B000AF0346C3
:10198000FB71FB791A4A52F8233040F241329A60D7
:10199000FB79174A52F82330DA68FB79144951F879
:1019A000233022F48052DA60FB79114A52F8232066
:1019B000FB790F4951F8233012691A61FB790C4AFF
:1019C00052F82330DB68FA79094951F8222043F4B0
:1019D000005343F00C03D360FB79054A52F82330DF
:1019E00000221A6000BF0C37BD4680BC704700BFA4
:1019F0000400002080B483B000AF0346FB71FB7984
:101A0000074A52F82330DA68FB79054951F8233048
:101A100042F02002DA6000BF0C37BD4680BC704740
:101A20000400002080B485B000AF03463960FB712C
:101A30000023FB7316E0FB7B3A6813441978FB79AB
:101A40000E4A52F823300A465A6000BFFB790B4A0F
:101A500052F823301B6803F04003002BF6D0FB7BC9
:101A60000133FB73FB7B3A6813441B78002BE2D1F4
:101A700000BF00BF1437BD4680BC70470400002083
:101A800080B483B000AF03460A46FB711346BB71B6
:101A9000FB790A4A52F82330BA795A6000BFFB79C1
:101AA000064A52F823301B6803F04003002BF6D09F
:101AB00000BF00BF0C37BD4680BC7047040000204B
:101AC00080B483B000AF7860034A7B68136000BFC6
:101AD0000C37BD4680BC70476045002080B500AF24
:101AE000054B1B681B6803F02003002B02D0034B3F
:101AF0001B68984700BF80BD04000020604500209F
:101B000080B483B000AF0346FB71FB79044A52F8FE
:101B100023305B68DBB218460C37BD4680BC70478B
:101B20000400002080B500AFFFF7CEFE02210220A6
:101B3000FFF7E4FE0E210220FFF7E0FE192101204D
:101B4000FFF7DCFE03210220FFF7D8FE022200216E
:101B50000120FFF773FD022201210120FFF76EFD36
:101B6000022203210120FFF769FD04220A2100203F
:101B7000FFF764FD092209210020FFF75FFD042221
:101B80000B210020FFF75AFD09220C210020FFF74E
:101B900055FD2520FFF76EFE0848FFF791FF002056
:101BA000FFF728FF0020FFF7E7FEFFF795FA00F0A8
:101BB00072F8FFF797FB00BF80BD00BFD91C00087B
:101BC00080B586B000AF40F25D633B600023BB6030
:101BD0000023FB6003233B613B4604491846FFF7A3
:101BE000CFFA00BF1837BD4680BD00BF6C4500204E
:101BF00080B58EB000AF00BF0020FFF733FC034676
:101C0000002BF9D007F118031A4A19460020FFF7F4
:101C10007FFB184B1B78DBB2012B0AD8154B5B7886
:101C2000DBB29B00144A134419460020FFF7FAFE6A
:101C300017E0104B5B78DBB2002B0ED00D4B5B78BE
:101C4000DBB21A463B1D19461046FFF7F5F97863DB
:101C5000796B0020FFF7E6FE03E030210020FFF75C
:101C60000FFF0A210020FFF70BFF00BF3837BD46EA
:101C700080BD00BF6C4500201800002080B483B0F8
:101C800000AF0346FB80FB885B019BB218460C3714
:101C9000BD4680BC704780B58AB000AF01237B622F
:101CA0000023BB6100237B6140F25D60FFF7E6FF2C
:101CB00003467B600023BB600023FB6000233B6185
:101CC0000023FB6101233B623B1D1846FFF7E6FB47
:101CD00000BF2837BD4680BD80B500AF244B1B78C0
:101CE0000133DAB2224B1A70214B1B78012B0DD134
:101CF0000020FFF705FF0346303BDAB21D4B1A7098
:101D0000012200210120FFF757FD2EE0184B1B7820
:101D1000022B0DD10020FFF7F3FE0346303BDAB271
:101D2000144B5A70012201210120FFF745FD1CE0F0
:101D30000F4B1B78032B18D10020FFF7E1FE034661
:101D4000303BDAB20B4B9A70012203210120FFF7DE
:101D500033FD074B00221A7020210020FFF790FE70
:101D6000054B1B681846FEF733FC00BF80BD00BF63
:101D70006F4500206C4500206445002080B582B08E
:101D800002AFFFF7CFFE022202210020FFF756FC30
:101D9000022201210020FFF751FC104B0193022386
:101DA0000093002380220E490E48FEF758FA0E4B8E
:101DB000019302230093002380220C490C48FEF774
:101DC0004EFA064B1B681846FEF75EFB064B1B6877
:101DD0001846FEF759FBFEF73BFCFEE76445002082
:101DE0003C1F0008F51D000868450020441F00083E
:101DF000291E000880B582B000AF78600122022160
:101E00000020FFF7D9FCFFF7DBFE054B1B681846E7
:101E1000FEF7DEFB034B1B681846FEF735FBEDE7CC
:101E2000684500206445002080B582B000AF78602E
:101E3000012201210020FFF7BFFCFFF7D9FE00229D
:101E400001210020FFF7B8FC002202210020FFF74B
:101E5000B3FC002200210120FFF7AEFC002201218B
:101E60000120FFF7A9FC002203210120FFF7A4FCB9
:101E7000024B1B681846FEF707FBD9E768450020B0
:101E80000D488546AFF300800C480D490D4A0023EC
:101E900002E0D458C4500433C4188C42F9D30A4A1F
:101EA0000A4C002301E013600432A242FBD300F08D
:101EB00011F8FFF763FFFEE700500020000000204C
:101EC00020000020541F0008200000207045002042
:101ED000FEE7000070B500260C4D0D4C641BA410ED
:101EE000A64209D100F01AF800260A4D0A4C641BDC
:101EF000A410A64205D170BD55F8043B98470136A1
:101F0000EEE755F8043B98470136F2E74C1F00080E
:101F10004C1F00084C1F0008501F0008F8B500BFF8
:101F2000F8BC08BC9E467047F8B500BFF8BC08BCBA
:041F30009E46704712
:101F340049444C450000000043414E5F54580000A2
:081F440043414E5F52580000BA
:041F4C005501000833
:041F50003101000853
:101F5400AAAAAAAA00380140004400400048004050
:101F6400004C0040005000404F4646004F4E0000D9
:0400000508001E8150
:00000001FF
