:100000000C942A000C94450F0C94780F0C94AB0FB1
:100010000C9447000C9447000C94F70B0C942A0C9A
:100020000C9447000C9447000C9447000C94470034
:100030000C940B0D0C94610A0C94940A0C944700D8
:100040000C949E130C9447000C9447000C944700AA
:100050000C94470011241FBECFE5D8E0DEBFCDBF12
:1000600011E0A0E6B0E0E8E8F1E402C005900D92EE
:10007000A638B107D9F711E0A6E8B1E001C01D929A
:10008000AA3AB107E1F70E9433080C94C2200C94FD
:100090000000EF92FF920F931F937B018C0120E0F1
:1000A00030E040E05FE40E94F50388238CF0C80153
:1000B000B70120E030E040E05FE40E94C1010E940F
:1000C00055049B01AC01205030404040504806C0D0
:1000D000C801B7010E9455049B01AC01B901CA01D6
:1000E0001F910F91FF90EF900895A0E0B0E0EBE733
:1000F000F0E00C948B20DC012B01FA019C919230F2
:1001000008F439C1EB018881823008F433C194309E
:1001100069F4843009F02FC111969C91119789815F
:10012000981709F428C1A0E6B0E025C1843009F48D
:1001300021C18230A9F4923009F01DC19A01AD01AC
:1001400088E0EA010990AE01E90109929E0181501F
:10015000C1F7E201898111969C918923818308C1AD
:10016000923009F407C112962D903C901397EB0141
:100170008A819B811496AD90BD90CD90DC901797AD
:10018000EC80FD800E811F819101281B390BB90184
:1001900037FF04C066277727621B730B6032710537
:1001A0000CF061C0121613066CF537014801062EDB
:1001B00004C096948794779467940A94D2F721E0C8
:1001C00030E040E050E004C0220F331F441F551FB1
:1001D0006A95D2F721503040404050402E213F21B7
:1001E00040235123211531054105510521F021E01E
:1001F00030E040E050E079018A01E628F72808293C
:1002000019293CC0232BD1F1260E371E350146019A
:10021000062E04C096948794779467940A94D2F734
:1002200021E030E040E050E004C0220F331F441FC3
:10023000551F6A95D2F721503040404050402A2146
:100240003B214C215D21211531054105510521F04E
:1002500021E030E040E050E059016A01A628B728CB
:10026000C828D9280BC0821593052CF01C01AA249C
:10027000BB24650103C0EE24FF24870111969C91E5
:10028000D20111968C91981709F445C0992339F041
:10029000A80197012A193B094C095D0906C0A6016E
:1002A00095012E193F09400B510B57FD08C01182D3
:1002B0003382228224833583468357831DC081E0A5
:1002C00081833382228288279927DC01821B930B4A
:1002D000A40BB50B84839583A683B7830DC0220F2F
:1002E000331F441F551F24833583468357838281E0
:1002F000938101979383828324813581468157813D
:10030000DA01C9010197A109B1098F5F9F4FAF4F72
:10031000BF4328F30BC0918333822282EA0CFB1C7B
:100320000C1D1D1DE482F5820683178383E0808304
:10033000248135814681578157FF1AC0C901AA27F8
:1003400097FDA095BA2F81709070A070B0705695EF
:10035000479537952795822B932BA42BB52B848318
:100360009583A683B7838281938101969383828349
:10037000DF0101C0D201CD01CDB7DEB7E2E10C94BF
:10038000A720A0E2B0E0E7ECF1E00C9497206983AD
:100390007A838B839C832D833E834F835887E9E048
:1003A000EE2EF12CEC0EFD1ECE010196B7010E943F
:1003B00046068E010F5E1F4FCE010596B8010E94C2
:1003C00046068A8991E089278A8BC701B801AE0168
:1003D000475E5F4F0E9475000E947105A096E6E09F
:1003E0000C94B320A0E2B0E0E8EFF1E00C94972089
:1003F00069837A838B839C832D833E834F835887C5
:10040000F9E0EF2EF12CEC0EFD1ECE010196B701A6
:100410000E9446068E010F5E1F4FCE010596B80161
:100420000E944606C701B801AE01475E5F4F0E94B9
:1004300075000E947105A096E6E00C94B320A0E23E
:10044000B0E0E5E2F2E00C948B2069837A838B8341
:100450009C832D833E834F835887CE010196BE0136
:10046000675F7F4F0E944606CE010596BE016F5E14
:100470007F4F0E9446069985923088F089898230A4
:10048000C8F0943019F4823051F404C0843029F457
:10049000923081F480E690E0C6C0923049F420E0CA
:1004A0009A858A89981321E02A87CE010996BBC0D4
:1004B000823049F420E09A858A89981321E02A8BBA
:1004C000CE014196B0C02D843E844F8458886D88FB
:1004D0007E888F88988CEE24FF248701AA24BB2471
:1004E000650140E050E060E070E0E0E0F0E0C10174
:1004F00081709070892BE9F0E60CF71C081D191D1E
:100500009A01AB012A0D3B1D4C1D5D1D80E090E062
:10051000A0E0B0E0E614F7040805190520F481E036
:1005200090E0A0E0B0E0BA01A901480F591F6A1F8E
:100530007B1FAA0CBB1CCC1CDD1C97FE08C081E0F5
:1005400090E0A0E0B0E0A82AB92ACA2ADB2A3196B6
:10055000E032F10549F0660C771C881C991C569412
:10056000479437942794C3CFFA85EA892B893C892D
:100570008B859C85280F391F2E5F3F4F17C0CA01FE
:1005800081709070892B61F016950795F794E79428
:1005900080E090E0A0E0B0E8E82AF92A0A2B1B2BC3
:1005A00076956795579547952F5F3F4F77FDE7CF36
:1005B0000CC0440F551F661F771F17FD4160EE0CDE
:1005C000FF1C001F111F21503040403090E05907A0
:1005D00090E0690790E4790760F32B8F3C8FDB0193
:1005E000CA018F779070A070B07080349105A1051A
:1005F000B10561F447FD0AC0E114F10401051105DC
:1006000029F0405C5F4F6F4F7F4F40781A8EFE1786
:1006100011F081E08A8F4D8F5E8F6F8F78A383E01A
:10062000898FCE0149960E947105A096E2E10C9453
:10063000A720A8E1B0E0EFE1F3E00C9493206983F8
:100640007A838B839C832D833E834F835887B9E0C5
:10065000EB2EF12CEC0EFD1ECE010196B7010E948F
:1006600046068E010F5E1F4FCE010596B8010E940F
:1006700046062985223008F47EC03989323010F4CC
:10068000B8017CC08A859A8989278A87243011F02D
:10069000223031F4231709F06EC060E670E06EC0BE
:1006A000343039F41D861E861F86188A1C861B86E8
:1006B00004C0323021F484E08987B7015FC02B8504
:1006C0003C858B899C89281B390B3C872B87ED84C3
:1006D000FE840F851889AD88BE88CF88D88CEA142F
:1006E000FB040C051D0540F4EE0CFF1C001F111F40
:1006F000215030403C872B8720E030E040E050E044
:1007000080E090E0A0E0B0E460E070E0EA14FB0478
:100710000C051D0540F0282B392B4A2B5B2BEA18C2
:10072000FB080C091D09B695A79597958795EE0CC2
:10073000FF1C001F111F6F5F7F4F6F31710531F775
:10074000DA01C9018F779070A070B0708034910584
:10075000A105B10561F427FD0AC0E114F10401050A
:10076000110529F0205C3F4F4F4F5F4F20782D87B8
:100770003E874F87588BBE01675F7F4FCB010E943A
:1007800071056896EAE00C94AF20A8E1B0E0EBECCC
:10079000F3E00C94972069837A838B839C832D8369
:1007A0003E834F83588789E0E82EF12CEC0EFD1E26
:1007B000CE010196B7010E9446068E010F5E1F4FC3
:1007C000CE010596B8010E9446068985823040F028
:1007D0008989823028F0C701B8010E94BE0601C095
:1007E0008FEF6896E6E00C94B320A8E1B0E0EBEF61
:1007F000F3E00C94972069837A838B839C832D8309
:100800003E834F83588789E0E82EF12CEC0EFD1EC5
:10081000CE010196B7010E9446068E010F5E1F4F62
:10082000CE010596B8010E9446068985823040F0C7
:100830008989823028F0C701B8010E94BE0601C034
:100840008FEF6896E6E00C94B320A8E1B0E0EBE20D
:10085000F4E00C94972069837A838B839C832D83A7
:100860003E834F83588789E0E82EF12CEC0EFD1E65
:10087000CE010196B7010E9446068E010F5E1F4F02
:10088000CE010596B8010E9446068985823040F067
:100890008989823028F0C701B8010E94BE0601C0D4
:1008A00081E06896E6E00C94B320ACE0B0E0EBE5C4
:1008B000F4E00C949B2069837A838B839C83CE0124
:1008C0000196BE016B5F7F4F0E9446068D8182308C
:1008D00061F1823050F1843021F48E81882351F10E
:1008E0002EC02F81388537FD20C06E812F31310514
:1008F0001CF06623F9F023C08EE190E0821B930B7D
:1009000029853A854B855C8504C056954795379572
:1009100027958A95D2F76623B1F05095409530958A
:1009200021953F4F4F4F5F4F0EC020E030E040E039
:1009300050E009C02FEF3FEF4FEF5FE704C020E02A
:1009400030E040E050E8B901CA012C96E2E00C9496
:10095000B720A8E0B0E0EFEAF4E00C9493207B012C
:100960008C01611571058105910519F482E0898377
:1009700060C083E089838EE1C82ED12CDC82CB82DB
:10098000ED82FE820F831887C801B7010E942205FD
:10099000FC013197F7FF3BC0222733272E1B3F0B6B
:1009A00057016801022E04C0D694C794B794A79447
:1009B0000A94D2F740E050E060E070E081E090E01F
:1009C000A0E0B0E004C0880F991FAA1FBB1F2A95A2
:1009D000D2F70197A109B1098E219F21A023B1234C
:1009E0000097A105B10521F041E050E060E070E022
:1009F0004A295B296C297D294D835E836F83788723
:100A00008EE190E08E1B9F0B9C838B8312C03097EE
:100A100081F00E2E04C0EE0CFF1C001F111F0A9463
:100A2000D2F7ED82FE820F831887CE1ADF0ADC82AE
:100A3000CB821A82CE0101960E9471052896EAE0C7
:100A40000C94AF20EF92FF920F931F937B018C01C8
:100A500080E0E81680E0F80681E0080780E01807EB
:100A600088F48FEFE816F1040105110531F028F044
:100A700088E090E0A0E0B0E017C080E090E0A0E067
:100A8000B0E012C080E0E81680E0F80680E00807D9
:100A900081E0180728F088E190E0A0E0B0E004C011
:100AA00080E190E0A0E0B0E020E230E040E050E003
:100AB000281B390B4A0B5B0B04C016950795F7945E
:100AC000E7948A95D2F7F701E859FF4F8081281BF8
:100AD000310941095109C9011F910F91FF90EF9010
:100AE0000895DF92EF92FF920F931F93FC01E48031
:100AF000F58006811781D1808081823048F480E0C2
:100B000090E0A0E1B0E0E82AF92A0A2B1B2BA5C04F
:100B1000843009F49FC0823021F4EE24FF24870141
:100B200005C0E114F1040105110519F4E0E0F0E05D
:100B300096C0628173819FEF623879070CF05BC0C9
:100B400022E83FEF261B370B2A3131052CF020E03D
:100B500030E040E050E02AC0B801A701022E04C0F6
:100B600076956795579547950A94D2F781E090E07E
:100B7000A0E0B0E004C0880F991FAA1FBB1F2A95F0
:100B8000D2F70197A109B1098E219F21A023B1239A
:100B90000097A105B10521F081E090E0A0E0B0E070
:100BA0009A01AB01282B392B4A2B5B2BDA01C901A7
:100BB0008F779070A070B07080349105A105B10559
:100BC00039F427FF09C0205C3F4F4F4F5F4F04C0EF
:100BD000215C3F4F4F4F5F4FE0E0F0E02030A0E05E
:100BE0003A07A0E04A07A0E45A0710F0E1E0F0E07D
:100BF00079018A0127C06038710564F5FB01E1586D
:100C0000FF4FD801C7018F779070A070B07080340B
:100C10009105A105B10539F4E7FE0DC080E490E02F
:100C2000A0E0B0E004C08FE390E0A0E0B0E0E80E08
:100C3000F91E0A1F1B1F17FF05C016950795F7948D
:100C4000E794319687E016950795F794E7948A958F
:100C5000D1F705C0EE24FF248701EFEFF0E06E2FFF
:100C6000679566276795902F9F77D794DD24D79453
:100C70008E2F8695492F462B582F5D29B701CA0123
:100C80001F910F91FF90EF90DF900895FC01DB0121
:100C9000408151812281622F6F7770E0221F2227CD
:100CA000221F9381892F880F822B282F30E0991FD4
:100CB0009927991F11969C93119721153105A9F534
:100CC000411551056105710511F482E037C082E8D4
:100CD0009FEF13969C938E9312979A01AB0167E056
:100CE000220F331F441F551F6A95D1F783E08C9361
:100CF0000DC0220F331F441F551F12968D919C91DA
:100D00001397019713969C938E931297203080E04F
:100D1000380780E0480780E4580758F314962D936D
:100D20003D934D935C93179708952F3F310579F4C8
:100D3000411551056105710519F484E08C930895FE
:100D400064FF03C081E08C9312C01C9210C02F5727
:100D5000304013963C932E93129783E08C9387E058
:100D6000440F551F661F771F8A95D1F7706414963C
:100D70004D935D936D937C93179708951F93DC01BA
:100D8000FB019C91923008F447C08081823008F4C6
:100D900043C0943051F411961C91843099F58181AF
:100DA000682F70E0611B71093FC0843021F09230E0
:100DB00031F48230B9F18181882389F12DC01196F7
:100DC0001C9111978230F1F081811817D9F4129695
:100DD0002D913C911397828193818217930794F010
:100DE00028173907BCF014968D919D910D90BC91F8
:100DF000A02D2481358146815781281739074A075C
:100E00005B0718F4112341F00AC082179307A40767
:100E1000B50740F4112319F061E070E005C06FEFF1
:100E20007FEF02C060E070E0CB011F9108950F9347
:100E30001F93DF93CF93CDB7DEB7809188018823CE
:100E4000C1F40E94D1098093890180E060E00E9492
:100E5000071F80918901882F90E0A0E0B0E0BC01DD
:100E6000CD010E94331E809188018F5F809388019D
:100E70005CC0809188018130F1F50E94D109809396
:100E8000680181E060E00E94071F80916801882F5F
:100E900090E0A0E0B0E0BC01CD010E94331E809143
:100EA00088018F5F8093880181E080938701809122
:100EB000890184500E94DE1280918901882F90E080
:100EC0008C01045010400E943013CC01A0E0B0E02F
:100ED000BC01CD010E94A9049B01AC01C801880F8F
:100EE000991F880F991FFC01E056FE4F2083318324
:100EF000428353831AC00E94D10980938B01809151
:100F00006801882319F4109288010FC0809188012C
:100F1000843048F481E080938701809188018F5F5D
:100F20008093880102C010928801CF91DF911F91B8
:100F30000F910895DF93CF93CDB7DEB72E970FB6FD
:100F4000F894DEBF0FBECDBF0E943E0D0E94620D21
:100F500080E090E0A0EAB1E48B879C87AD87BE87F4
:100F60006B857C858D859E8520E030E04AEF54E4DA
:100F70000E941F02DC01CB018F839887A987BA8763
:100F80006F81788589859A8520E030E040E85FE3CD
:100F90000E94250488232CF481E090E09E838D83B9
:100FA0003FC06F81788589859A8520E03FEF4FE7C4
:100FB00057E40E94C50318164CF56B857C858D851A
:100FC0009E8520E030E040E251E40E941F02DC01F7
:100FD000CB01BC01CD010E944900DC01CB019E8305
:100FE0008D830FC088EC90E09C838B838B819C81E8
:100FF0000197F1F79C838B838D819E8101979E835E
:101000008D838D819E81009769F714C06F817885EB
:1010100089859A850E944900DC01CB019E838D83DE
:101020008D819E819A83898389819A810197F1F7C5
:101030009A8389830E949C0C87E197E00E943D0A75
:101040000E948D090E9416090E94A5140E943C125C
:101050000E9479122E960FB6F894DEBF0FBECDBF58
:10106000CF91DF910895DF93CF9300D00F92CDB74A
:10107000DEB70E949A07809187018130E1F7809165
:101080006801813021F480918801823040F48091A0
:101090006801882381F780918801882361F70E9485
:1010A000F30C89831092870180918801843011F4B8
:1010B0001092880180918901282F30E03B832A8398
:1010C0008A819B818430910539F02A813B812530CA
:1010D000310509F456C0CFCF8091A0019091A101B4
:1010E000A091A201B091A301BC01CD0120E030E0AC
:1010F00040E251E40E941903DC01CB01BC01CD01A7
:101100000E944900DC01CB010E94FD0C8091A001EE
:101110009091A101A091A201B091A301BC01CD01C8
:1011200020E030E040E251E40E941903DC01CB01F1
:10113000BC01CD010E944900DC01CB010E94C30922
:1011400081E061E00E94071F8091A0019091A101C0
:10115000A091A201B091A301BC01CD0120E030E03B
:1011600040E251E40E941903DC01CB01BC01CD0136
:101170000E944900DC01CB01BC01CD010E94331E5D
:101180007ACF8091A4019091A501A091A601B09180
:10119000A701BC01CD0120E030E040E251E40E9413
:1011A0001903DC01CB01BC01CD010E944900DC0127
:1011B000CB010E94FD0C8091A4019091A501A0910A
:1011C000A601B091A701BC01CD0120E030E040E2D2
:1011D00051E40E941903DC01CB01BC01CD010E9446
:1011E0004900DC01CB010E94C30981E065E00E9457
:1011F000071F8091A4019091A501A091A601B09133
:10120000A701BC01CD0120E030E040E251E40E94A2
:101210001903DC01CB01BC01CD010E944900DC01B6
:10122000CB01BC01CD010E94331E25CFDF93CF93AC
:10123000CDB7DEB7A0E4B0E0E0E4F0E08081806804
:101240008C93A0E4B0E0E0E4F0E080818F7B8C93AD
:10125000A0E4B0E0E0E4F0E080818E7F8C93A0E435
:10126000B0E0E0E4F0E0808182608C93A0E4B0E044
:10127000E0E4F0E0808184608C93A0E4B0E0E0E4FE
:10128000F0E080818F7D8C93A0E4B0E0E0E4F0E0BA
:1012900080818F7E8C93A0E4B0E0E0E4F0E0808178
:1012A000877F8C93A0E4B0E0E0E4F0E080818F776A
:1012B0008C93E0E4F0E01082E9E2F0E083E38083E5
:1012C000AAE2B0E0EAE2F0E0808180618C93AAE2D9
:1012D000B0E0EAE2F0E0808188608C93CF91DF910A
:1012E0000895DF93CF93CDB7DEB7AAE2B0E0EAE28C
:1012F000F0E0808180628C93CF91DF910895DF933D
:10130000CF93CDB7DEB7AAE2B0E0EAE2F0E08081A9
:101310008F7D8C93CF91DF910895DF93CF93CDB7DD
:10132000DEB7AAE2B0E0EAE2F0E0808180688C9368
:10133000CF91DF910895DF93CF93CDB7DEB7AAE2C7
:10134000B0E0EAE2F0E080818F778C93CF91DF917B
:101350000895DF93CF930F92CDB7DEB78983EBE289
:10136000F0E08081829586958770882F90E081706B
:1013700090700097A1F3ECE2F0E0898180830F90F8
:10138000CF91DF910895DF93CF930F92CDB7DEB762
:101390008983ECE2F0E0898180830F90CF91DF9127
:1013A0000895DF93CF93CDB7DEB7ECE2F0E0808114
:1013B000CF91DF910895DF93CF93CDB7DEB7EBE206
:1013C000F0E080818823DCF7ECE2F0E08081CF91CF
:1013D000DF910895DF93CF9300D0CDB7DEB79A8326
:1013E00089830AC0E981FA8180810E94A9098981E3
:1013F0009A8101969A838983E981FA818081882381
:1014000089F70F900F90CF91DF9108950F931F935D
:10141000DF93CF9300D00F92CDB7DEB79B838A8343
:1014200019820FC08981282F30E08A819B818C012D
:10143000020F131F0E94DB09F801808389818F5FEF
:1014400089838981282F30E08A819B81FC01E20F0A
:10145000F31F8081882331F78981282F30E08A812A
:101460009B81FC01E20FF31F10820F900F900F90F1
:10147000CF91DF911F910F910895DF93CF9300D00B
:10148000CDB7DEB79A83898389819A8190938F0142
:1014900080938E010F900F90CF91DF910895DF938D
:1014A000CF9300D0CDB7DEB79A83898389819A81A3
:1014B00090938D0180938C010F900F90CF91DF91CD
:1014C00008951F920F920FB60F9211242F933F93FE
:1014D0004F935F936F937F938F939F93AF93BF933C
:1014E000EF93FF93DF93CF93CDB7DEB780918E015B
:1014F00090918F01009729F0E0918E01F0918F017A
:101500000995CF91DF91FF91EF91BF91AF919F919D
:101510008F917F916F915F914F913F912F910F909C
:101520000FBE0F901F9018951F920F920FB60F923B
:1015300011242F933F934F935F936F937F938F93D8
:101540009F93AF93BF93EF93FF93DF93CF93CDB769
:10155000DEB780918C0190918D01009729F0E09188
:101560008C01F0918D010995CF91DF91FF91EF9161
:10157000BF91AF919F918F917F916F915F914F91AB
:101580003F912F910F900FBE0F901F901895DF93F2
:10159000CF93CDB7DEB7EFE4F0E01082EEE4F0E0F9
:1015A0001082AFE4B0E0EFE4F0E0808180688C93DB
:1015B000AFE4B0E0EFE4F0E080818F7B8C93AFE4A8
:1015C000B0E0EFE4F0E0808180628C93AFE4B0E0C3
:1015D000EFE4F0E080818F7E8C93AFE4B0E0EFE445
:1015E000F0E080818E7F8C93AFE4B0E0EFE4F0E038
:1015F000808182608C93AEE4B0E0EEE4F0E0808124
:1016000088608C93AEE4B0E0EEE4F0E0808180612D
:101610008C93AEE4B0E0EEE4F0E080818E7F8C93BA
:10162000AEE4B0E0EEE4F0E0808182608C93AEE462
:10163000B0E0EEE4F0E080818B7F8C93CF91DF917E
:101640000895DF93CF9300D0CDB7DEB79A83898317
:10165000E6E4F0E089819A81918380830F900F9076
:10166000CF91DF910895DF93CF9300D0CDB7DEB750
:101670009A838983ECE4F0E089819A819183808365
:101680000F900F90CF91DF910895DF93CF93CDB757
:10169000DEB7ECE4F0E080819181CF91DF91089595
:1016A000DF93CF9300D0CDB7DEB79A838983EAE486
:1016B000F0E089819A81918380830F900F90CF9180
:1016C000DF910895DF93CF93CDB7DEB7ECE4F0E080
:1016D00011821082AEE4B0E0EEE4F0E080818E7F13
:1016E0008C93AEE4B0E0EEE4F0E080818D7F8C93EB
:1016F000AEE4B0E0EEE4F0E080818B7F8C93CF919C
:10170000DF910895DF93CF930F92CDB7DEB7898332
:101710008981813041F4AEE4B0E0EEE4F0E0808114
:1017200080648C930AC08981882339F4AEE4B0E0E8
:10173000EEE4F0E080818F7B8C930F90CF91DF916E
:101740000895DF93CF93CDB7DEB7E6E4F0E0808174
:101750009181CF91DF910895DF93CF93CDB7DEB71D
:10176000ECE4F0E011821082CF91DF910895DF93D5
:10177000CF93CDB7DEB7EFE4F0E01082EEE4F0E017
:101780001082ECE4F0E011821082E6E4F0E01182D5
:101790001082A9E5B0E0E9E5F0E080818F7D8C93CF
:1017A000CF91DF910895DF93CF9300D0CDB7DEB70F
:1017B0009A83898389819A81909391018093900182
:1017C0000F900F90CF91DF910895DF93CF9300D0CA
:1017D000CDB7DEB79A83898389819A8190939301EB
:1017E000809392010F900F90CF91DF9108951F92F7
:1017F0000F920FB60F9211242F933F934F935F9345
:101800006F937F938F939F93AF93BF93EF93FF93C8
:10181000DF93CF93CDB7DEB7809190019091910186
:10182000009729F0E0919001F09191010995CF91F5
:10183000DF91FF91EF91BF91AF919F918F917F9138
:101840006F915F914F913F912F910F900FBE0F902D
:101850001F9018951F920F920FB60F9211242F937D
:101860003F934F935F936F937F938F939F93AF9328
:10187000BF93EF93FF93DF93CF93CDB7DEB7809104
:10188000920190919301009729F0E0919201F091DB
:1018900093010995CF91DF91FF91EF91BF91AF91A6
:1018A0009F918F917F916F915F914F913F912F9178
:1018B0000F900FBE0F901F901895DF93CF93CDB769
:1018C000DEB7ADE2B0E0EDE2F0E0808180618C93C4
:1018D000ADE2B0E0EDE2F0E0808180648C93ADE2B7
:1018E000B0E0EDE2F0E08081877F8C93ADE2B0E084
:1018F000EDE2F0E080818B7F8C93ADE2B0E0EDE231
:10190000F0E080818F7D8C93AEE2B0E0EEE2F0E01B
:1019100080818E7F8C93ADE2B0E0EDE2F0E08081DB
:101920008E7F8C93ADE2B0E0EDE2F0E080818D7FC0
:101930008C93CF91DF910895DF93CF93CDB7DEB72E
:10194000ADE2B0E0EDE2F0E080818F7E8C93ADE21D
:10195000B0E0EDE2F0E08081877F8C93ADE2B0E013
:10196000EDE2F0E080818B7F8C93ADE2B0E0EDE2C0
:10197000F0E080818F7D8C93ADE2B0E0EDE2F0E0AD
:10198000808180648C93CF91DF910895DF93CF9312
:101990000F92CDB7DEB78983EFE2F0E089818083D3
:1019A000809169018F5F80936901EEE2F0E08081B0
:1019B0008823DCF7EFE2F0E080810F90CF91DF9198
:1019C0000895DF93CF9300D0CDB7DEB79A83898394
:1019D00089819A8190939501809394010F900F9043
:1019E000CF91DF910895DF93CF93CDB7DEB7EFE2CC
:1019F000F0E08081CF91DF910895DF93CF930F9234
:101A0000CDB7DEB78983EFE2F0E0898180830F9064
:101A1000CF91DF9108951F920F920FB60F9211246C
:101A20002F933F934F935F936F937F938F939F93E6
:101A3000AF93BF93EF93FF93DF93CF93CDB7DEB711
:101A40008091940190919501009729F0E091940183
:101A5000F09195010995CF91DF91FF91EF91BF91A1
:101A6000AF919F918F917F916F915F914F913F9136
:101A70002F910F900FBE0F901F901895DF93CF936B
:101A8000CDB7DEB7EAE3F0E08CEF8083E7E3F0E088
:101A90008FE48083E4E3F0E08FEF8083E1E3F0E024
:101AA0008EEF8083EBE3F0E01082E8E3F0E080EA81
:101AB0008083E5E3F0E01082E2E3F0E01082CF9172
:101AC000DF910895DF93CF93CDB7DEB7AFE5B0E0F8
:101AD000EFE5F0E0808180688C93CF91DF910895ED
:101AE000DF93CF93CDB7DEB7AFE5B0E0EFE5F0E041
:101AF00080818F778C93CF91DF910895DF93CF937F
:101B0000CDB7DEB7A5E5B0E0E5E5F0E08081826025
:101B10008C93A5E5B0E0E5E5F0E080818E7F8C93C5
:101B2000CF91DF910895DF93CF93CDB7DEB7ABE5CB
:101B3000B0E0EBE5F0E0808180648C93CF91DF91A1
:101B40000895DF93CF93CDB7DEB7ABE5B0E0EBE51B
:101B5000F0E080818F7B8C93CF91DF910895DF93AC
:101B6000CF9300D00F92CDB7DEB789838981282F1C
:101B700030E03B832A838A819B818230910599F1F1
:101B80002A813B812330310534F48A819B81813065
:101B90009105C1F145C02A813B8123303105A1F077
:101BA0008A819B8184309105D9F5A5E5B0E0E5E512
:101BB000F0E0808182608C93A5E5B0E0E5E5F0E09F
:101BC00080818E7F8C932CC0A5E5B0E0E5E5F0E048
:101BD000808182608C93A5E5B0E0E5E5F0E080814E
:101BE00081608C931DC0A5E5B0E0E5E5F0E0808163
:101BF0008D7F8C93A5E5B0E0E5E5F0E080818E7FF8
:101C00008C930EC0A5E5B0E0E5E5F0E08081816051
:101C10008C93A5E5B0E0E5E5F0E080818D7F8C93C5
:101C20000F900F900F90CF91DF910895DF93CF9396
:101C3000CDB7DEB7A5E5B0E0E5E5F0E080818B7FCC
:101C40008C93A5E5B0E0E5E5F0E0808188608C93B9
:101C5000CF91DF910895DF93CF93CDB7DEB7ABE59A
:101C6000B0E0EBE5F0E0808180688C93CF91DF916C
:101C70000895DF93CF93CDB7DEB7ABE5B0E0EBE5EA
:101C8000F0E080818F778C93CF91DF910895DF937F
:101C9000CF9300D00F92CDB7DEB789838981282FEB
:101CA00030E03B832A838A819B818230910599F1C0
:101CB0002A813B812330310534F48A819B81813034
:101CC0009105C1F145C02A813B8123303105A1F046
:101CD0008A819B8184309105D9F5A5E5B0E0E5E5E1
:101CE000F0E080818B7F8C93A5E5B0E0E5E5F0E046
:101CF000808188608C932CC0A5E5B0E0E5E5F0E03C
:101D0000808184608C93A5E5B0E0E5E5F0E080811A
:101D100088608C931DC0A5E5B0E0E5E5F0E080812A
:101D20008B7F8C93A5E5B0E0E5E5F0E08081877FCF
:101D30008C930EC0A5E5B0E0E5E5F0E08081877FFB
:101D40008C93A5E5B0E0E5E5F0E0808184608C93BC
:101D50000F900F900F90CF91DF910895DF93CF9365
:101D6000CDB7DEB7A5E5B0E0E5E5F0E080818F7B9B
:101D70008C93CF91DF910895DF93CF93CDB7DEB7EA
:101D8000ABE5B0E0EBE5F0E0808180628C93CF9131
:101D9000DF910895DF93CF93CDB7DEB7ABE5B0E029
:101DA000EBE5F0E080818F7D8C93CF91DF910895FA
:101DB000DF93CF9300D00F92CDB7DEB789838981AF
:101DC000282F30E03B832A838A819B8183309105D1
:101DD00069F02A813B812430310579F4A5E5B0E032
:101DE000E5E5F0E080818F7B8C9307C0A5E5B0E04E
:101DF000E5E5F0E0808180648C930F900F900F9068
:101E0000CF91DF910895DF93CF9300D0CDB7DEB7A8
:101E10009A83898389819A81009731F089819A8197
:101E200090939701809396010F900F90CF91DF913F
:101E30000895DF93CF9300D0CDB7DEB79A8389831F
:101E400089819A81009731F089819A8190939901D3
:101E5000809398010F900F90CF91DF910895DF93B9
:101E6000CF9300D0CDB7DEB79A83898389819A81D9
:101E7000009731F089819A8190939B0180939A0118
:101E80000F900F90CF91DF9108951F920F920FB690
:101E90000F9211242F933F934F935F936F937F93F0
:101EA0008F939F93AF93BF93EF93FF93DF93CF9362
:101EB000CDB7DEB78091960190919701009729F0F8
:101EC000E0919601F09197010995CF91DF91FF91F3
:101ED000EF91BF91AF919F918F917F916F915F91A2
:101EE0004F913F912F910F900FBE0F901F9018951B
:101EF0001F920F920FB60F9211242F933F934F937F
:101F00005F936F937F938F939F93AF93BF93EF9361
:101F1000FF93DF93CF93CDB7DEB780919801909177
:101F20009901009729F0E0919801F09199010995A4
:101F3000CF91DF91FF91EF91BF91AF919F918F91E1
:101F40007F916F915F914F913F912F910F900FBEB5
:101F50000F901F9018951F920F920FB60F92112499
:101F60002F933F934F935F936F937F938F939F93A1
:101F7000AF93BF93EF93FF93DF93CF93CDB7DEB7CC
:101F800080919A0190919B01009729F0E0919A012C
:101F9000F0919B010995CF91DF91FF91EF91BF9156
:101FA000AF919F918F917F916F915F914F913F91F1
:101FB0002F910F900FBE0F901F901895DF93CF9326
:101FC00000D000D000D0CDB7DEB78A836B834C83BE
:101FD00019828A81282F30E03E832D838D819E8156
:101FE0008130910509F449C02D813E8122303105AF
:101FF0002CF48D819E81009771F0D4C02D813E819B
:102000002230310509F46BC08D819E8183309105AA
:1020100009F497C0C7C08C818130A1F4ABE3B0E074
:10202000EBE3F0E08081482F8B81282F30E081E0C6
:1020300090E0022E02C0880F991F0A94E2F7842BC9
:102040008C93B0C08C818823A9F4ABE3B0E0EBE3C0
:10205000F0E08081482F8B81282F30E081E090E0F4
:10206000022E02C0880F991F0A94E2F780958423FC
:102070008C9398C081E0898395C08C818130A1F4D4
:10208000A8E3B0E0E8E3F0E08081482F8B81282FBF
:1020900030E081E090E0022E02C0880F991F0A9480
:1020A000E2F7842B8C937EC08C818823A9F4A8E36B
:1020B000B0E0E8E3F0E08081482F8B81282F30E00A
:1020C00081E090E0022E02C0880F991F0A94E2F787
:1020D000809584238C9366C081E0898363C08C8162
:1020E0008130A1F4A5E3B0E0E5E3F0E08081482F82
:1020F0008B81282F30E081E090E0022E02C0880F13
:10210000991F0A94E2F7842B8C934CC08C8188230E
:10211000A9F4A5E3B0E0E5E3F0E08081482F8B81EE
:10212000282F30E081E090E0022E02C0880F991F36
:102130000A94E2F7809584238C9334C081E08983EC
:1021400031C08C818130A1F4A2E3B0E0E2E3F0E0A1
:102150008081482F8B81282F30E081E090E0022E93
:1021600002C0880F991F0A94E2F7842B8C931AC03F
:102170008C818823A9F4A2E3B0E0E2E3F0E080815F
:10218000482F8B81282F30E081E090E0022E02C0A2
:10219000880F991F0A94E2F7809584238C9302C0DC
:1021A00081E08983898126960FB6F894DEBF0FBE41
:1021B000CDBFCF91DF910895DF93CF9300D000D0B2
:1021C0000F92CDB7DEB78A836B8319828A81843000
:1021D00098F58A81282F30E03D832C838C819D8166
:1021E00081309105D1F02C813D81223031052CF4D4
:1021F0008C819D81009761F021C02C813D8122302E
:10220000310581F08C819D818330910581F016C06C
:10221000EBE3F0E08B81808311C0E8E3F0E08B8199
:1022200080830CC0E5E3F0E08B81808307C0E2E3AC
:10223000F0E08B81808302C081E0898389810F90E7
:102240000F900F900F900F90CF91DF910895DF9333
:10225000CF93CDB7DEB727970FB6F894DEBF0FBE8A
:10226000CDBF89836A835C834B838981282F30E0CB
:102270003F832E834E815F814130510559F18E811C
:102280009F818230910534F42E813F8121153105E3
:1022900069F05CC04E815F814230510579F18E81D9
:1022A0009F818330910509F43DC050C0E9E3F0E01F
:1022B0008081282F30E08A81882F90E0A90102C018
:1022C000559547958A95E2F7CA018170EB81FC81AB
:1022D00080833EC0E6E3F0E08081282F30E08A81F1
:1022E000882F90E0A90102C0559547958A95E2F79D
:1022F000CA018170EB81FC8180832AC0E3E3F0E0B6
:102300008081282F30E08A81882F90E0A90102C0C7
:10231000559547958A95E2F7CA018170EB81FC815A
:10232000808316C0E0E3F0E08081282F30E08A81CE
:10233000882F90E0A90102C0559547958A95E2F74C
:10234000CA018170EB81FC81808302C01D8202C0C2
:1023500051E05D838D8127960FB6F894DEBF0FBEE6
:10236000CDBFCF91DF910895DF93CF9300D000D000
:102370000F92CDB7DEB78A836B8319828A81282FAB
:1023800030E03D832C834C815D814130510541F12A
:102390008C819D818230910534F42C813D81211501
:1023A000310561F052C04C815D814230510551F1DF
:1023B0008C819D8183309105B9F147C0E9E3F0E05C
:1023C0008081282F30E08B81882F90E0A90102C006
:1023D000559547958A95E2F7CA018170898335C082
:1023E000E6E3F0E08081282F30E08B81882F90E0B9
:1023F000A90102C0559547958A95E2F7CA018170F7
:10240000898323C0E3E3F0E08081282F30E08B81D3
:10241000882F90E0A90102C0559547958A95E2F76B
:10242000CA018170898311C0E0E3F0E08081282F28
:1024300030E08B81882F90E0A90102C05595479527
:102440008A95E2F7CA018170898389810F900F9084
:102450000F900F900F90CF91DF910895DF93CF935E
:102460000F92CDB7DEB78983EBE3F0E089818083FB
:102470000F90CF91DF910895DF93CF93CDB7DEB763
:10248000A7E2B0E0E7E2F0E0808180648C93A7E20D
:10249000B0E0E7E2F0E080818F778C9380E090E01D
:1024A000A0EAB0E480936A0190936B01A0936C0161
:1024B000B0936D01A6E2B0E0E6E2F0E080818160D9
:1024C0008C93A6E2B0E0E6E2F0E0808182608C933B
:1024D000A6E2B0E0E6E2F0E0808184608C93A7E2BF
:1024E000B0E0E7E2F0E080818F7D8C93CF91DF91C7
:1024F0000895DF93CF93CDB7DEB7A6E2B0E0E6E272
:10250000F0E0808180688C93CF91DF910895DF9314
:10251000CF93CDB7DEB7A6E2B0E0E6E2F0E080818F
:1025200088608C93CF91DF910895DF93CF93CDB7DF
:10253000DEB7A6E2B0E0E6E2F0E080818F778C9330
:10254000CF91DF910895DF93CF9300D0CDB7DEB761
:102550001A821982E4E2F0E080819181CC01A0E04E
:10256000B0E0BC01CD010E94A904DC01CB012091A7
:102570006A0130916B0140916C0150916D01BC0179
:10258000CD010E941F02DC01CB01BC01CD0120E086
:1025900030E040E854E40E941903DC01CB01BC01A7
:1025A000CD010E944900DC01CB019A838983898196
:1025B0009A810F900F90CF91DF910895DF93CF9381
:1025C0000F92CDB7DEB78983A7E2B0E0E7E2F0E093
:1025D0008081807E8C93A7E2B0E0E7E2F0E090811A
:1025E0008981892B8C93A6E2B0E0E6E2F0E080815D
:1025F00080648C93E6E2F0E0808182958F70882F72
:1026000090E0817090700097A9F3A6E2B0E0E6E256
:10261000F0E0808180618C930F90CF91DF910895DD
:10262000DF93CF930F92CDB7DEB78983A7E2B0E0F7
:10263000E7E2F0E08081807E8C93A7E2B0E0E7E201
:10264000F0E090818981892B8C93A6E2B0E0E6E2EC
:10265000F0E0808180648C930F90CF91DF9108959A
:10266000EF92FF920F931F93DF93CF9300D0CDB7DC
:10267000DEB71A821982E4E2F0E0808191817C0168
:1026800000E010E080916A0190916B01A0916C01D3
:10269000B0916D01BC01CD010E944900DC01CB016C
:1026A000282F30E040E050E0C801B7010E942F2001
:1026B000DC01CB0128EE33E040E050E0BC01CD016D
:1026C0000E942F20DC01CB01072E7AE0B695A7955A
:1026D000979587957A95D1F7702D9A83898389810B
:1026E0009A810F900F90CF91DF911F910F91FF90E2
:1026F000EF900895DF93CF93CDB7DEB7A6E2B0E0B9
:10270000E6E2F0E08081877F8C93CF91DF9108959E
:10271000DF93CF9300D0CDB7DEB79A8389838981C9
:102720009A81009731F089819A819093A9018093D1
:10273000A8010F900F90CF91DF9108951F920F92F3
:102740000FB60F9211242F933F934F935F936F9384
:102750007F938F939F93AF93BF93EF93FF93DF93F9
:10276000CF93CDB7DEB78091A8019091A9010097D2
:1027700029F0E091A801F091A9010995CF91DF918D
:10278000FF91EF91BF91AF919F918F917F916F9149
:102790005F914F913F912F910F900FBE0F901F901F
:1027A0001895DF93CF93CDB7DEB780E00E94DB139F
:1027B000CF91DF910895DF93CF9300D00F92CDB7E3
:1027C000DEB78B838B81882F90E0A0E0B0E0BC0166
:1027D000CD010E94A904DC01CB01BC01CD0120E0A8
:1027E00030E048EC52E40E941903DC01CB01BC014B
:1027F000CD0120E030E44CE956E40E941F02DC01E8
:10280000CB01BC01CD010E944900DC01CB019A83C0
:1028100089838B81882339F00E94C70A89819A8134
:102820000E94500B02C00E94620B0F900F900F90FD
:10283000CF91DF910895DF93CF93CDB7DEB780E0DE
:102840000E942E1480E00E94491480E00E947514BA
:1028500080E00E948D14CF91DF910895DF93CF9394
:102860000F92CDB7DEB789838981813031F480E062
:1028700066E041E00E94DE0F08C08981882329F4C8
:1028800080E066E040E00E94DE0F0F90CF91DF9184
:102890000895DF93CF930F92CDB7DEB789838981F7
:1028A000813031F480E067E041E00E94DE0F08C033
:1028B0008981882329F480E067E040E00E94DE0FF0
:1028C0000F90CF91DF910895DF93CF93CDB7DEB70F
:1028D00080E066E040E00E94DE0F80E067E040E0DC
:1028E0000E94DE0FCF91DF910895DF93CF930F9277
:1028F000CDB7DEB789838981813031F480E064E02F
:1029000041E00E94DE0F05C080E064E040E00E94EC
:10291000DE0F0F90CF91DF910895DF93CF930F9249
:10292000CDB7DEB789838981813031F480E065E0FD
:1029300041E00E94DE0F05C080E065E040E00E94BB
:10294000DE0F0F90CF91DF9108950F931F93DF93C8
:10295000CF93CDB7DEB7CC58D0400FB6F894DEBFDA
:102960000FBECDBFFE01E757FF4F80E090E0ACE027
:10297000B2E480839183A283B3838E010B571F4FF0
:10298000FE01E757FF4F608171818281938120E0D2
:1029900030E04AE755E40E941F02DC01CB01F80158
:1029A00080839183A283B383FE01EB57FF4F608145
:1029B00071818281938120E030E040E85FE30E94F2
:1029C0002504882344F4FE01ED57FF4F81E090E099
:1029D0009183808364C0FE01EB57FF4F608171815A
:1029E0008281938120E03FEF4FE757E40E94C503C7
:1029F00018160CF043C0FE01E757FF4F608171814C
:102A00008281938120E030E040E251E40E941F0285
:102A1000DC01CB018E010D571F4FBC01CD010E947F
:102A20004900DC01CB01F801918380831FC0FE01C6
:102A3000EF57FF4F80E991E091838083FE01EF57CC
:102A4000FF4F808191810197F1F7FE01EF57FF4F12
:102A500091838083DE01AD57BF4FFE01ED57FF4FDD
:102A600080819181019711969C938E93FE01ED5781
:102A7000FF4F808191810097D1F627C08E010D57BD
:102A80001F4FFE01EB57FF4F60817181828193815F
:102A90000E944900DC01CB01F80191838083DE01B3
:102AA000A158BF4FFE01ED57FF4F808191818D935B
:102AB0009C93FE01E158FF4F808191810197F1F7CE
:102AC000FE01E158FF4F9183808380E30E94951BB4
:102AD000FE01E558FF4F80E090E0A0EAB0E480837B
:102AE0009183A283B3838E0109581F4FFE01E558DD
:102AF000FF4F608171818281938120E030E04AE75D
:102B000055E40E941F02DC01CB01F8018083918310
:102B1000A283B383FE01E958FF4F608171818281F6
:102B2000938120E030E040E85FE30E9425048823A1
:102B300044F4FE01EB58FF4F81E090E091838083E5
:102B400064C0FE01E958FF4F6081718182819381E9
:102B500020E03FEF4FE757E40E94C50318160CF042
:102B600043C0FE01E558FF4F6081718182819381EE
:102B700020E030E040E251E40E941F02DC01CB0182
:102B80008E010B581F4FBC01CD010E944900DC0192
:102B9000CB01F801918380831FC0FE01ED58FF4FE8
:102BA00080E991E091838083FE01ED58FF4F8081A1
:102BB00091810197F1F7FE01ED58FF4F91838083DA
:102BC000DE01AB58BF4FFE01EB58FF4F8081918172
:102BD000019711969C938E93FE01EB58FF4F8081D5
:102BE00091810097D1F627C08E010B581F4FFE012F
:102BF000E958FF4F60817181828193810E94490071
:102C0000DC01CB01F80191838083DE01AF58BF4F17
:102C1000FE01EB58FF4F808191818D939C93FE01C3
:102C2000EF58FF4F808191810197F1F7FE01EF5836
:102C3000FF4F9183808380E30E94951BFE01E3593F
:102C4000FF4F80E090E0A0E8BFE380839183A28300
:102C5000B3838E0107591F4FFE01E359FF4F608177
:102C600071818281938120E030E04AE755E40E943F
:102C70001F02DC01CB01F80180839183A283B3831F
:102C8000FE01E759FF4F608171818281938120E0CD
:102C900030E040E85FE30E942504882344F4FE010D
:102CA000E959FF4F81E090E09183808364C0FE0189
:102CB000E759FF4F608171818281938120E03FEF6E
:102CC0004FE757E40E94C50318160CF043C0FE01FD
:102CD000E359FF4F608171818281938120E030E070
:102CE00040E251E40E941F02DC01CB018E01095930
:102CF0001F4FBC01CD010E944900DC01CB01F8014E
:102D0000918380831FC0FE01EB59FF4F80E991E062
:102D100091838083FE01EB59FF4F80819181019760
:102D2000F1F7FE01EB59FF4F91838083DE01A95932
:102D3000BF4FFE01E959FF4F8081918101971196A4
:102D40009C938E93FE01E959FF4F808191810097FA
:102D5000D1F627C08E0109591F4FFE01E759FF4FD9
:102D600060817181828193810E944900DC01CB01E5
:102D7000F80191838083DE01AD59BF4FFE01E9590F
:102D8000FF4F808191818D939C93FE01ED59FF4F00
:102D9000808191810197F1F7FE01ED59FF4F9183F9
:102DA000808380E30E94951BFE01E15AFF4F80E083
:102DB00090E0A0E8BFE380839183A283B3838E0178
:102DC000055A1F4FFE01E15AFF4F608171818281D8
:102DD000938120E030E04AE755E40E941F02DC01C5
:102DE000CB01F80180839183A283B383FE01E55A6E
:102DF000FF4F608171818281938120E030E040E863
:102E00005FE30E942504882344F4FE01E75AFF4F44
:102E100081E090E09183808364C0FE01E55AFF4F1A
:102E2000608171818281938120E03FEF4FE757E419
:102E30000E94C50318160CF043C0FE01E15AFF4F73
:102E4000608171818281938120E030E040E251E431
:102E50000E941F02DC01CB018E01075A1F4FBC01EB
:102E6000CD010E944900DC01CB01F80191838083F0
:102E70001FC0FE01E95AFF4F80E991E091838083F2
:102E8000FE01E95AFF4F808191810197F1F7FE0120
:102E9000E95AFF4F91838083DE01A75ABF4FFE019D
:102EA000E75AFF4F80819181019711969C938E93F1
:102EB000FE01E75AFF4F808191810097D1F627C02C
:102EC0008E01075A1F4FFE01E55AFF4F6081718145
:102ED000828193810E944900DC01CB01F80191833A
:102EE0008083DE01AB5ABF4FFE01E75AFF4F80815E
:102EF00091818D939C93FE01EB5AFF4F80819181CC
:102F00000197F1F7FE01EB5AFF4F9183808380E236
:102F10000E94951BFE01EF5AFF4F80E090E0A0E871
:102F2000BFE380839183A283B3838E01035B1F4F32
:102F3000FE01EF5AFF4F608171818281938120E011
:102F400030E04AE755E40E941F02DC01CB01F801A2
:102F500080839183A283B383FE01E35BFF4F608193
:102F600071818281938120E030E040E85FE30E943C
:102F70002504882344F4FE01E55BFF4F81E090E0E7
:102F80009183808364C0FE01E35BFF4F60817181A8
:102F90008281938120E03FEF4FE757E40E94C50311
:102FA00018160CF043C0FE01EF5AFF4F608171818B
:102FB0008281938120E030E040E251E40E941F02D0
:102FC000DC01CB018E01055B1F4FBC01CD010E94CE
:102FD0004900DC01CB01F801918380831FC0FE0111
:102FE000E75BFF4F80E991E091838083FE01E75B1F
:102FF000FF4F808191810197F1F7FE01E75BFF4F61
:1030000091838083DE01A55BBF4FFE01E55BFF4F2F
:1030100080819181019711969C938E93FE01E55BCF
:10302000FF4F808191810097D1F627C08E01055B0B
:103030001F4FFE01E35BFF4F6081718182819381AD
:103040000E944900DC01CB01F80191838083DE01FD
:10305000A95BBF4FFE01E55BFF4F808191818D939E
:103060009C93FE01E95BFF4F808191810197F1F70D
:10307000FE01E95BFF4F9183808388E20E94A51ADD
:10308000FE01ED5BFF4F80E090E0A0E8BFE38083AE
:103090009183A283B3838E01015C1F4FFE01ED5B20
:1030A000FF4F608171818281938120E030E04AE7A7
:1030B00055E40E941F02DC01CB01F801808391835B
:1030C000A283B383FE01FF96608171818281938127
:1030D00020E030E040E85FE30E94250488232CF4E0
:1030E00081E090E09EAF8DAF46C0FE01FF9660810B
:1030F00071818281938120E03FEF4FE757E40E9486
:10310000C503181664F5FE01ED5BFF4F6081718108
:103110008281938120E030E040E251E40E941F026E
:10312000DC01CB01BC01CD010E944900DC01CB01D7
:103130009EAF8DAF0FC080E991E09CAF8BAF8BADA0
:103140009CAD0197F1F79CAF8BAF8DAD9EAD019714
:103150009EAF8DAF8DAD9EAD009769F716C0FE0195
:10316000FF9660817181828193810E944900DC0118
:10317000CB019EAF8DAF8DAD9EAD9AAF89AF89ADBE
:103180009AAD0197F1F79AAF89AF88E00E94A51A2E
:1031900080E090E0A0E8BFE38DAB9EABAFABB8AFF3
:1031A0006DA97EA98FA998AD20E030E04AE755E4EB
:1031B0000E941F02DC01CB0189AB9AABABABBCAB6D
:1031C00069A97AA98BA99CA920E030E040E85FE3D7
:1031D0000E94250488232CF481E090E098AB8FA70F
:1031E0003FC069A97AA98BA99CA920E03FEF4FE7CE
:1031F00057E40E94C50318164CF56DA97EA98FA946
:1032000098AD20E030E040E251E40E941F02DC0172
:10321000CB01BC01CD010E944900DC01CB0198AB80
:103220008FA70FC080E991E09EA78DA78DA59EA5D1
:103230000197F1F79EA78DA78FA598A9019798AB45
:103240008FA78FA598A9009769F714C069A97AA9D3
:103250008BA99CA90E944900DC01CB0198AB8FA7E8
:103260008FA598A99CA78BA78BA59CA50197F1F783
:103270009CA78BA781E00E94A51A80E090E0A0EABD
:10328000B0E48FA398A7A9A7BAA76FA178A589A52D
:103290009AA520E030E04AE755E40E941F02DC01D5
:1032A000CB018BA39CA3ADA3BEA36BA17CA18DA1DD
:1032B0009EA120E030E040E85FE30E9425048823DF
:1032C0002CF481E090E09AA389A33FC06BA17CA17C
:1032D0008DA19EA120E03FEF4FE757E40E94C50378
:1032E00018164CF56FA178A589A59AA520E030E0C5
:1032F00040E251E40E941F02DC01CB01BC01CD0180
:103300000E944900DC01CB019AA389A30FC080E988
:1033100091E098A38F8F8F8D98A10197F1F798A3D3
:103320008F8F89A19AA101979AA389A389A19AA1B4
:10333000009769F714C06BA17CA18DA19EA10E948A
:103340004900DC01CB019AA389A389A19AA19E8F90
:103350008D8F8D8D9E8D0197F1F79E8F8D8F8CE0D7
:103360000E94A51A80E090E0A0E8BFE3898F9A8FC1
:10337000AB8FBC8F698D7A8D8B8D9C8D20E030E07A
:103380004AE755E40E941F02DC01CB018D8B9E8B26
:10339000AF8BB88F6D897E898F89988D20E030E062
:1033A00040E85FE30E94250488232CF481E090E04C
:1033B0009C8B8B8B3FC06D897E898F89988D20E097
:1033C0003FEF4FE757E40E94C50318164CF5698D8F
:1033D0007A8D8B8D9C8D20E030E040E251E40E949C
:1033E0001F02DC01CB01BC01CD010E944900DC01C0
:1033F000CB019C8B8B8B0FC080E991E09A8B898BE2
:1034000089899A890197F1F79A8B898B8B899C8995
:1034100001979C8B8B8B8B899C89009769F714C0D3
:103420006D897E898F89988D0E944900DC01CB01CE
:103430009C8B8B8B8B899C89988B8F878F859889A8
:103440000197F1F7988B8F8786E00E94A51A80E09C
:1034500090E0A0E8BFE38B879C87AD87BE876B8534
:103460007C858D859E8520E030E04AE755E40E940A
:103470001F02DC01CB018F839887A987BA876F81F0
:10348000788589859A8520E030E040E85FE30E94F6
:10349000250488232CF481E090E09E838D833FC037
:1034A0006F81788589859A8520E03FEF4FE757E463
:1034B0000E94C50318164CF56B857C858D859E850D
:1034C00020E030E040E251E40E941F02DC01CB0129
:1034D000BC01CD010E944900DC01CB019E838D839C
:1034E0000FC080E991E09C838B838B819C81019745
:1034F000F1F79C838B838D819E8101979E838D83C1
:103500008D819E81009769F714C06F8178858985C8
:103510009A850E944900DC01CB019E838D838D81B9
:103520009E819A83898389819A810197F1F79A8391
:103530008983C457DF4F0FB6F894DEBF0FBECDBFEF
:10354000CF91DF911F910F910895DF93CF93CDB766
:10355000DEB72F970FB6F894DEBF0FBECDBF8F87B3
:1035600080E063E040E00E94DE0F80E062E041E046
:103570000E94DE0F8F8582958F70982F917081E069
:1035800060E0492F0E94DE0F8F85829586958770B7
:10359000982F917081E061E0492F0E94DE0F8F85A6
:1035A0008295869586958370982F917081E062E070
:1035B000492F0E94DE0F8F85982F991F9927991FF9
:1035C00081E063E0492F0E94DE0F80E062E040E08E
:1035D0000E94DE0F80E062E041E00E94DE0F8F85F6
:1035E000982F917081E060E0492F0E94DE0F8F8557
:1035F0008695982F917081E061E0492F0E94DE0F3F
:103600008F8586958695982F917081E062E0492F8D
:103610000E94DE0F8F85869586958695982F9170EE
:1036200081E063E0492F0E94DE0F80E062E040E02D
:103630000E94DE0F80E090E0A0EAB0E48B879C87D8
:10364000AD87BE876B857C858D859E8520E030E0CB
:103650004AE755E40E941F02DC01CB018F83988763
:10366000A987BA876F81788589859A8520E030E0BF
:1036700040E85FE30E94250488232CF481E090E079
:103680009E838D833FC06F81788589859A8520E0F0
:103690003FEF4FE757E40E94C50318164CF56B85C2
:1036A0007C858D859E8520E030E040E251E40E94DB
:1036B0001F02DC01CB01BC01CD010E944900DC01ED
:1036C000CB019E838D830FC080E991E09C838B8327
:1036D0008B819C810197F1F79C838B838D819E81E7
:1036E00001979E838D838D819E81009769F714C019
:1036F0006F81788589859A850E944900DC01CB011C
:103700009E838D838D819E819A83898389819A810D
:103710000197F1F79A8389832F960FB6F894DEBF4D
:103720000FBECDBFCF91DF910895DF93CF93CDB77B
:10373000DEB72F970FB6F894DEBF0FBECDBF8F87D1
:1037400080E063E040E00E94DE0F80E062E041E064
:103750000E94DE0F8F8582958F70982F917081E087
:1037600060E0492F0E94DE0F8F85829586958770D5
:10377000982F917081E061E0492F0E94DE0F8F85C4
:103780008295869586958370982F917081E062E08E
:10379000492F0E94DE0F8F85982F991F9927991F17
:1037A00081E063E0492F0E94DE0F80E062E040E0AC
:1037B0000E94DE0F80E090E0A0EAB0E48B879C8757
:1037C000AD87BE876B857C858D859E8520E030E04A
:1037D0004AE755E40E941F02DC01CB018F839887E2
:1037E000A987BA876F81788589859A8520E030E03E
:1037F00040E85FE30E94250488232CF481E090E0F8
:103800009E838D833FC06F81788589859A8520E06E
:103810003FEF4FE757E40E94C50318164CF56B8540
:103820007C858D859E8520E030E040E251E40E9459
:103830001F02DC01CB01BC01CD010E944900DC016B
:10384000CB019E838D830FC080E991E09C838B83A5
:103850008B819C810197F1F79C838B838D819E8165
:1038600001979E838D838D819E81009769F714C097
:103870006F81788589859A850E944900DC01CB019A
:103880009E838D838D819E819A83898389819A818C
:103890000197F1F79A8389832F960FB6F894DEBFCC
:1038A0000FBECDBFCF91DF910895DF93CF93CDB7FA
:1038B000DEB72F970FB6F894DEBF0FBECDBF8F8750
:1038C00080E063E041E00E94DE0F80E062E041E0E2
:1038D0000E94DE0F8F8582958F70982F917081E006
:1038E00060E0492F0E94DE0F8F8582958695877054
:1038F000982F917081E061E0492F0E94DE0F8F8543
:103900008295869586958370982F917081E062E00C
:10391000492F0E94DE0F8F85982F991F9927991F95
:1039200081E063E0492F0E94DE0F80E062E040E02A
:103930000E94DE0F80E062E041E00E94DE0F8F8592
:10394000982F917081E060E0492F0E94DE0F8F85F3
:103950008695982F917081E061E0492F0E94DE0FDB
:103960008F8586958695982F917081E062E0492F2A
:103970000E94DE0F8F85869586958695982F91708B
:1039800081E063E0492F0E94DE0F80E062E040E0CA
:103990000E94DE0F80E090E0A0EAB0E48B879C8775
:1039A000AD87BE876B857C858D859E8520E030E068
:1039B0004AE755E40E941F02DC01CB018F83988700
:1039C000A987BA876F81788589859A8520E030E05C
:1039D00040E85FE30E94250488232CF481E090E016
:1039E0009E838D833FC06F81788589859A8520E08D
:1039F0003FEF4FE757E40E94C50318164CF56B855F
:103A00007C858D859E8520E030E040E251E40E9477
:103A10001F02DC01CB01BC01CD010E944900DC0189
:103A2000CB019E838D830FC080E991E09C838B83C3
:103A30008B819C810197F1F79C838B838D819E8183
:103A400001979E838D838D819E81009769F714C0B5
:103A50006F81788589859A850E944900DC01CB01B8
:103A60009E838D838D819E819A83898389819A81AA
:103A70000197F1F79A8389832F960FB6F894DEBFEA
:103A80000FBECDBFCF91DF910895DF93CF9300D0CC
:103A90000F92CDB7DEB79B838A8319820EC08981CE
:103AA000282F30E08A819B81FC01E20FF31F808187
:103AB0000E94551C89818F5F89838981282F30E07E
:103AC0008A819B81FC01E20FF31F8081882339F7F3
:103AD0000F900F900F90CF91DF9108950F931F9348
:103AE000DF93CF93CDB7DEB72E970FB6F894DEBF36
:103AF0000FBECDBF69877A878B879C875E874D878E
:103B00001D821E821F82188683E190E0A0E0B0E053
:103B100089839A83AB83BC8329813A818D859E8575
:103B2000FC01E20FF31F108289819A81AB81BC8175
:103B30000197A109B10989839A83AB83BC838985E5
:103B40009A85AB85BC85BB230CF04DC081E090E02D
:103B5000A0E0B0E08D839E83AF83B88789859A8586
:103B6000AB85BC85B095A095909581959F4FAF4F43
:103B7000BF4F89879A87AB87BC8735C029813A8137
:103B80008D859E858C01020F131F89859A85AB85D3
:103B9000BC852AE030E040E050E0BC01CD010E944D
:103BA0004E20DC01CB01805DF801808389819A8100
:103BB000AB81BC810197A109B10989839A83AB8349
:103BC000BC8389859A85AB85BC852AE030E040E0DE
:103BD00050E0BC01CD010E944E20DA01C901898765
:103BE0009A87AB87BC8789859A85AB85BC8500970A
:103BF000A105B10519F68D819E81AF81B885009729
:103C0000A105B105A1F029813A818D859E85FC0130
:103C1000E20FF31F8DE2808389819A81AB81BC81A1
:103C20000197A109B10989839A83AB83BC838981F8
:103C30009A81AB81BC810196A11DB11D89839A83B4
:103C4000AB83BC8329813A818D859E85820F931F2A
:103C50002E960FB6F894DEBF0FBECDBFCF91DF9189
:103C60001F910F910895DF93CF93CDB7DEB76A9779
:103C70000FB6F894DEBF0FBECDBF6F8B788F898FE4
:103C80009A8F8F89988DA98DBA8D0097A105B1055E
:103C900099F08F89988DA98DBA8D9E012D5F3F4F28
:103CA000BC01CD01A9010E946E1D9A83898389817F
:103CB0009A810E94451D03C080E30E94551C6A96AC
:103CC0000FB6F894DEBF0FBECDBFCF91DF91089540
:103CD000DF93CF93CDB7DEB7A6970FB6F894DEBFCC
:103CE0000FBECDBF6BA37CA38DA39EA36BA17CA1B4
:103CF0008DA19EA120E030E048EC52E40E941F021A
:103D0000DC01CB01BC01CD010E945504DC01CB01DB
:103D10008B879C87AD87BE878B859C85AD85BE854F
:103D20009E01215F3F4FBC01CD01A9010E946E1D84
:103D30009A8789871D821E821F82188619821A829D
:103D40001B821C820BC08D819E81AF81B88501963C
:103D5000A11DB11D8D839E83AF83B8872D813E81C8
:103D600089859A85FC01E20FF31F8081882359F72A
:103D70008D819E81AF81B8850297A109B1098D839C
:103D80009E83AF83B8878D819E81AF81B885009770
:103D9000A105B10549F580E30E94551C25C0298184
:103DA0003A814B815C818D819E81AF81B8852817D6
:103DB00039074A075B0719F48EE20E94551C2981D6
:103DC0003A8189859A85FC01E20FF31F80810E9468
:103DD000551C89819A81AB81BC810196A11DB11DC1
:103DE00089839A83AB83BC8329813A8189859A85AB
:103DF000FC01E20FF31F8081882389F6A6960FB697
:103E0000F894DEBF0FBECDBFCF91DF910895DF9351
:103E1000CF9300D00F92CDB7DEB78A836B8380E853
:103E200089838A81882321F48B818058898314C0F7
:103E30008A81813021F48B81805489830DC08A81ED
:103E4000823021F48B818C56898306C08A8183302D
:103E500019F48B818C528983898180688983898157
:103E60000E94A51A0F900F900F90CF91DF910895A7
:103E7000DF93CF9300D0CDB7DEB789836A83898182
:103E80006A810E94071F80E20E94551C0F900F90CC
:103E9000CF91DF910895DF93CF9300D00F92CDB7EC
:103EA000DEB78A836B8319820AC08A8169810E9486
:103EB000071F80E20E94551C89818F5F8983998149
:103EC0008B81891790F70F900F900F90CF91DF9112
:103ED0000895DF93CF93CDB7DEB727970FB6F89449
:103EE000DEBF0FBECDBF9C838B836D834E832F833C
:103EF0008E816F810E94071F8D810E94551C1A823E
:103F000019828D81883030F58D81882F90E0880F5F
:103F1000991F880F991F880F991F8A838A8180644F
:103F20008A838A818F778A838A810E94A51A19825F
:103F30000EC08981282F30E08B819C81FC01E20F2B
:103F4000F31F80810E94551C89818F5F898389813D
:103F5000883078F382E00E94A51A27960FB6F8946D
:103F6000DEBF0FBECDBFCF91DF910895DF93CF931A
:103F700000D000D00F92CDB7DEB78FEF8B831C82BD
:103F80001A825EC08A81882F90E0FC01EE58FE4FB5
:103F9000908182E0692F40E00E94DE0F19823DC0CF
:103FA0008981882F90E0FC01E259FE4F90819E01AB
:103FB0002C5F3F4F82E0692FA9010E9427118C815D
:103FC000882341F58981482F50E08A81282F30E0ED
:103FD000CA01880F991F880F991F820F931FFC0138
:103FE000EA58FE4F80818B830FC08981882F90E033
:103FF000FC01E259FE4F90819E012C5F3F4F82E011
:10400000692FA9010E9427118C81882371F38B816C
:104010008D831CC089818F5F89838981843008F4F6
:10402000BFCF8A81882F90E0FC01EE58FE4F90812F
:1040300082E0692F41E00E94DE0F8A818F5F8A83D0
:104040008A81843008F49ECF8B818D838D810F907F
:104050000F900F900F900F90CF91DF910895629F76
:10406000D001739FF001829FE00DF11D649FE00D70
:10407000F11D929FF00D839FF00D749FF00D659FD1
:10408000F00D9927729FB00DE11DF91F639FB00DD0
:10409000E11DF91FBD01CF011124089597FB092EE1
:1040A00005260ED057FD04D014D00AD0001C38F4D9
:1040B00050954095309521953F4F4F4F5F4F089554
:1040C000F6F790958095709561957F4F8F4F9F4F34
:1040D0000895A1E21A2EAA1BBB1BFD010DC0AA1F49
:1040E000BB1FEE1FFF1FA217B307E407F50720F061
:1040F000A21BB30BE40BF50B661F771F881F991FDC
:104100001A9469F760957095809590959B01AC0124
:10411000BD01CF0108952F923F924F925F926F920F
:104120007F928F929F92AF92BF92CF92DF92EF9247
:10413000FF920F931F93CF93DF93CDB7DEB7CA1BC8
:10414000DB0B0FB6F894DEBF0FBECDBF09942A88F3
:10415000398848885F846E847D848C849B84AA849B
:10416000B984C884DF80EE80FD800C811B81AA8128
:10417000B981CE0FD11D0FB6F894DEBF0FBECDBFF3
:08418000ED010895F894FFCF52
:104188000000000000000000000102020303030316
:1041980004040404040404040505050505050505CF
:1041A80005050505050505050606060606060606AF
:1041B8000606060606060606060606060606060697
:1041C800060606060606060607070707070707077F
:1041D8000707070707070707070707070707070767
:1041E8000707070707070707070707070707070757
:1041F8000707070707070707070707070707070747
:10420800070707070707070708080808080808082E
:104218000808080808080808080808080808080816
:104228000808080808080808080808080808080806
:1042380008080808080808080808080808080808F6
:1042480008080808080808080808080808080808E6
:1042580008080808080808080808080808080808D6
:1042680008080808080808080808080808080808C6
:1042780008080808080808080808080808080808B6
:10428800080808080808080803300000A0400302CE
:104298000100070605040708092F0405062A01027C
:0642A800032D43003D2B35
:00000001FF
